{"abi":[{"type":"constructor","inputs":[{"name":"_alignedProofAggregator","type":"address","internalType":"address"}],"stateMutability":"nonpayable"},{"type":"function","name":"PROGRAM_ID","inputs":[],"outputs":[{"name":"","type":"bytes32","internalType":"bytes32"}],"stateMutability":"view"},{"type":"function","name":"alignedProofAggregator","inputs":[],"outputs":[{"name":"","type":"address","internalType":"address"}],"stateMutability":"view"},{"type":"function","name":"stateRoot","inputs":[],"outputs":[{"name":"","type":"bytes32","internalType":"bytes32"}],"stateMutability":"view"},{"type":"function","name":"updateState","inputs":[{"name":"publicInputs","type":"bytes","internalType":"bytes"},{"name":"merkleProof","type":"bytes32[]","internalType":"bytes32[]"}],"outputs":[],"stateMutability":"nonpayable"},{"type":"event","name":"StateUpdated","inputs":[{"name":"","type":"bytes32","indexed":false,"internalType":"bytes32"}],"anonymous":false}],"bytecode":{"object":"0x608060405260008055348015601357600080fd5b506040516104fb3803806104fb8339810160408190526030916054565b600280546001600160a01b0319166001600160a01b03929092169190911790556082565b600060208284031215606557600080fd5b81516001600160a01b0381168114607b57600080fd5b9392505050565b61046a806100916000396000f3fe608060405234801561001057600080fd5b506004361061004c5760003560e01c80632f021764146100515780639588eca21461006d578063af80856414610076578063b4cf5ed3146100a1575b600080fd5b61005a60005481565b6040519081526020015b60405180910390f35b61005a60015481565b600254610089906001600160a01b031681565b6040516001600160a01b039091168152602001610064565b6100b46100af366004610275565b6100b6565b005b6000828260005487876040516024016100d3959493929190610348565b60408051601f198184030181529181526020820180516001600160e01b0316632df53d6b60e11b179052600254905191925060009182916001600160a01b03169061011f9085906103ba565b600060405180830381855afa9150503d806000811461015a576040519150601f19603f3d011682016040523d82523d6000602084013e61015f565b606091505b5091509150816101ab5760405162461bcd60e51b81526020600482015260126024820152711cdd185d1a58d7d8d85b1b0819985a5b195960721b60448201526064015b60405180910390fd5b6000818060200190518101906101c191906103e9565b9050806102105760405162461bcd60e51b815260206004820152601d60248201527f70726f6f66206e6f7420766572696669656420696e20616c69676e656400000060448201526064016101a2565b60008061021f898b018b610412565b91509150600154821461023157600080fd5b60018190556040518181527f7dec0c67bc5894b08872daeb9d5a8e7cba33c396890356a4d01ec40a71be5ce19060200160405180910390a150505050505050505050565b6000806000806040858703121561028b57600080fd5b843567ffffffffffffffff8111156102a257600080fd5b8501601f810187136102b357600080fd5b803567ffffffffffffffff8111156102ca57600080fd5b8760208284010111156102dc57600080fd5b60209182019550935085013567ffffffffffffffff8111156102fd57600080fd5b8501601f8101871361030e57600080fd5b803567ffffffffffffffff81111561032557600080fd5b8760208260051b840101111561033a57600080fd5b949793965060200194505050565b6060808252810185905260006001600160fb1b0386111561036857600080fd5b8560051b8088608085013780830190508560208401526080838203016040840152836080820152838560a0830137600060a0828601810191909152601f909401601f1916019092019695505050505050565b6000825160005b818110156103db57602081860181015185830152016103c1565b506000920191825250919050565b6000602082840312156103fb57600080fd5b8151801515811461040b57600080fd5b9392505050565b6000806040838503121561042557600080fd5b5050803592602090910135915056fea26469706673582212200e4909105440b6d95f2d5391c8c5474a570fceaf40938393bed0f5d72b31e07f64736f6c634300081c0033","linkReferences":{}},"methodIdentifiers":{"PROGRAM_ID()":"2f021764","alignedProofAggregator()":"af808564","stateRoot()":"9588eca2","updateState(bytes,bytes32[])":"b4cf5ed3"},"id":16}