{"abi":[{"type":"constructor","inputs":[],"stateMutability":"nonpayable"},{"type":"function","name":"VERIFIER_MOCK_ADDRESS","inputs":[],"outputs":[{"name":"","type":"address","internalType":"address"}],"stateMutability":"view"},{"type":"function","name":"aggregatedProofs","inputs":[{"name":"","type":"bytes32","internalType":"bytes32"}],"outputs":[{"name":"","type":"bool","internalType":"bool"}],"stateMutability":"view"},{"type":"function","name":"alignedAggregatorAddress","inputs":[],"outputs":[{"name":"","type":"address","internalType":"address"}],"stateMutability":"view"},{"type":"function","name":"initialize","inputs":[{"name":"newOwner","type":"address","internalType":"address"},{"name":"_alignedAggregatorAddress","type":"address","internalType":"address"},{"name":"_sp1VerifierAddress","type":"address","internalType":"address"},{"name":"_risc0VerifierAddress","type":"address","internalType":"address"},{"name":"_risc0AggregatorProgramImageId","type":"bytes32","internalType":"bytes32"},{"name":"_sp1AggregatorProgramVKHash","type":"bytes32","internalType":"bytes32"}],"outputs":[],"stateMutability":"nonpayable"},{"type":"function","name":"owner","inputs":[],"outputs":[{"name":"","type":"address","internalType":"address"}],"stateMutability":"view"},{"type":"function","name":"proxiableUUID","inputs":[],"outputs":[{"name":"","type":"bytes32","internalType":"bytes32"}],"stateMutability":"view"},{"type":"function","name":"renounceOwnership","inputs":[],"outputs":[],"stateMutability":"nonpayable"},{"type":"function","name":"risc0AggregatorProgramImageId","inputs":[],"outputs":[{"name":"","type":"bytes32","internalType":"bytes32"}],"stateMutability":"view"},{"type":"function","name":"risc0VerifierAddress","inputs":[],"outputs":[{"name":"","type":"address","internalType":"address"}],"stateMutability":"view"},{"type":"function","name":"setRisc0AggregatorProgramImageId","inputs":[{"name":"_risc0AggregatorProgramImageId","type":"bytes32","internalType":"bytes32"}],"outputs":[],"stateMutability":"nonpayable"},{"type":"function","name":"setRisc0VerifierAddress","inputs":[{"name":"_risc0VerifierAddress","type":"address","internalType":"address"}],"outputs":[],"stateMutability":"nonpayable"},{"type":"function","name":"setSP1AggregatorProgramVKHash","inputs":[{"name":"_sp1AggregatorProgramVKHash","type":"bytes32","internalType":"bytes32"}],"outputs":[],"stateMutability":"nonpayable"},{"type":"function","name":"sp1AggregatorProgramVKHash","inputs":[],"outputs":[{"name":"","type":"bytes32","internalType":"bytes32"}],"stateMutability":"view"},{"type":"function","name":"sp1VerifierAddress","inputs":[],"outputs":[{"name":"","type":"address","internalType":"address"}],"stateMutability":"view"},{"type":"function","name":"transferOwnership","inputs":[{"name":"newOwner","type":"address","internalType":"address"}],"outputs":[],"stateMutability":"nonpayable"},{"type":"function","name":"upgradeTo","inputs":[{"name":"newImplementation","type":"address","internalType":"address"}],"outputs":[],"stateMutability":"nonpayable"},{"type":"function","name":"upgradeToAndCall","inputs":[{"name":"newImplementation","type":"address","internalType":"address"},{"name":"data","type":"bytes","internalType":"bytes"}],"outputs":[],"stateMutability":"payable"},{"type":"function","name":"verifyRisc0","inputs":[{"name":"blobVersionedHash","type":"bytes32","internalType":"bytes32"},{"name":"risc0ReceiptSeal","type":"bytes","internalType":"bytes"},{"name":"risc0JournalBytes","type":"bytes","internalType":"bytes"}],"outputs":[],"stateMutability":"nonpayable"},{"type":"function","name":"verifySP1","inputs":[{"name":"blobVersionedHash","type":"bytes32","internalType":"bytes32"},{"name":"sp1PublicValues","type":"bytes","internalType":"bytes"},{"name":"sp1ProofBytes","type":"bytes","internalType":"bytes"}],"outputs":[],"stateMutability":"nonpayable"},{"type":"event","name":"AdminChanged","inputs":[{"name":"previousAdmin","type":"address","indexed":false,"internalType":"address"},{"name":"newAdmin","type":"address","indexed":false,"internalType":"address"}],"anonymous":false},{"type":"event","name":"AggregatedProofVerified","inputs":[{"name":"merkleRoot","type":"bytes32","indexed":true,"internalType":"bytes32"},{"name":"blobVersionedHash","type":"bytes32","indexed":false,"internalType":"bytes32"}],"anonymous":false},{"type":"event","name":"BeaconUpgraded","inputs":[{"name":"beacon","type":"address","indexed":true,"internalType":"address"}],"anonymous":false},{"type":"event","name":"Initialized","inputs":[{"name":"version","type":"uint8","indexed":false,"internalType":"uint8"}],"anonymous":false},{"type":"event","name":"OwnershipTransferred","inputs":[{"name":"previousOwner","type":"address","indexed":true,"internalType":"address"},{"name":"newOwner","type":"address","indexed":true,"internalType":"address"}],"anonymous":false},{"type":"event","name":"Upgraded","inputs":[{"name":"implementation","type":"address","indexed":true,"internalType":"address"}],"anonymous":false},{"type":"error","name":"OnlyAlignedAggregator","inputs":[{"name":"sender","type":"address","internalType":"address"}]}],"bytecode":{"object":"0x60a080604052346100dc57306080526000549060ff8260081c1661008a575060ff8082161061004f575b60405161139c90816100e2823960805181818161075b015281816108820152610bbf0152f35b60ff90811916176000557f7f26b83ff96e1f2b6a682f133852f6798a09c465da95921460cefb3847402498602060405160ff8152a138610029565b62461bcd60e51b815260206004820152602760248201527f496e697469616c697a61626c653a20636f6e747261637420697320696e697469604482015266616c697a696e6760c81b6064820152608490fd5b600080fdfe608080604052600436101561001357600080fd5b600090813560e01c9081630751299c14610f435750806325c36fa514610f2557806327d3bc9a14610ef6578063294e3ccb14610ecd5780633659cfe614610ba05780634c46688c14610b775780634f1ef2861461080c57806352d1902d1461074857806354687ccf146105f5578063616af4f7146105cc578063715018a61461056f57806383501b21146105535780638da5cb5b1461052a5780639367a05a146105075780639fc0984b146104e4578063a52f681b146104a4578063f28c3e37146102c3578063f2fde38b146102325763f6e04ac4146100f257600080fd5b3461022f5761010036610ffb565b60cb54929493929091906001600160a01b0316330361021c5760208386810103126102175760ca548335958794916001600160a01b03169060fe198201610188575b85887ffe3e9e971000ab9c80c7e06aba2933aae5419d0e44693e3046913e9e58053f6260208a83855260c9825260408520600160ff19825416179055604051908152a280f35b60ce54823b15610213576101d787956101c5976040519889978896879663020a49e360e51b88526004880152606060248801526064870191611114565b84810360031901604486015291611114565b03915afa8015610208576101ef575b80808080610142565b816101f991610f79565b6102045782386101e6565b8280fd5b6040513d84823e3d90fd5b8680fd5b600080fd5b63921f325560e01b865233600452602486fd5b80fd5b503461022f57602036600319011261022f5761024c610f63565b610254611135565b6001600160a01b0381161561026f5761026c9061118d565b80f35b60405162461bcd60e51b815260206004820152602660248201527f4f776e61626c653a206e6577206f776e657220697320746865207a65726f206160448201526564647265737360d01b6064820152608490fd5b503461022f5760c036600319011261022f576102dd610f63565b6024356001600160a01b03811690819003610204576044356001600160a01b038116908190036104a0576064356001600160a01b038116929083900361049c57845460ff8160081c16159485809661048f575b8015610478575b1561041c5760ff1982166001178755610388918661040b575b5061036a60ff885460081c16610365816111d6565b6111d6565b6103733361118d565b61038360ff885460081c166111d6565b61118d565b6001600160601b0360a01b60cb54161760cb556001600160601b0360a01b60ca54161760ca556001600160601b0360a01b60cc54161760cc5560843560cd5560a43560ce556103d45780f35b61ff001981541681557f7f26b83ff96e1f2b6a682f133852f6798a09c465da95921460cefb3847402498602060405160018152a180f35b61ffff191661010117875538610350565b60405162461bcd60e51b815260206004820152602e60248201527f496e697469616c697a61626c653a20636f6e747261637420697320616c72656160448201526d191e481a5b9a5d1a585b1a5e995960921b6064820152608490fd5b50303b1580156103375750600160ff831614610337565b50600160ff831610610330565b8480fd5b8380fd5b503461022f57602036600319011261022f576104be610f63565b6104c6611135565b60018060a01b03166001600160601b0360a01b60cc54161760cc5580f35b503461022f57602036600319011261022f576104fe611135565b60043560ce5580f35b503461022f57602036600319011261022f57610521611135565b60043560cd5580f35b503461022f578060031936011261022f576033546040516001600160a01b039091168152602090f35b503461022f578060031936011261022f57602060405160ff8152f35b503461022f578060031936011261022f57610588611135565b603380546001600160a01b0319811690915581906001600160a01b03167f8be0079c531659141344cd1fd0a4f28419497f9722a3daafe3b4186f6b6457e08280a380f35b503461022f578060031936011261022f5760cc546040516001600160a01b039091168152602090f35b503461022f5761060436610ffb565b60cb549094939291906001600160a01b0316330361021c5790859160208187810103126102045760cc548135966001600160a01b039091169160fe19830161068d575b84887ffe3e9e971000ab9c80c7e06aba2933aae5419d0e44693e3046913e9e58053f6260208a83855260c9825260408520600160ff19825416179055604051908152a280f35b81859160209360405192839283378101838152039060025afa156102085782519360cd5492823b1561049c576106e2936040519687958694859463ab750e7560e01b8652606060048701526064860191611114565b916024840152604483015203915afa801561073d57610706575b8381808080610647565b836107357ffe3e9e971000ab9c80c7e06aba2933aae5419d0e44693e3046913e9e58053f629395602093610f79565b9391506106fc565b6040513d86823e3d90fd5b503461022f578060031936011261022f577f00000000000000000000000000000000000000000000000000000000000000006001600160a01b031630036107a15760206040516000805160206113478339815191528152f35b60405162461bcd60e51b815260206004820152603860248201527f555550535570677261646561626c653a206d757374206e6f742062652063616c60448201527f6c6564207468726f7567682064656c656761746563616c6c00000000000000006064820152608490fd5b50604036600319011261022f57610821610f63565b60243567ffffffffffffffff81116102045736602382011215610204578060040135908361084e83610fb1565b9161085c6040519384610f79565b8383526020830193366024828401011161020457806024602093018637830101526108d57f00000000000000000000000000000000000000000000000000000000000000006001600160a01b03166108b630821415611052565b600080516020611347833981519152546001600160a01b0316146110b3565b6108dd611135565b7f4910fdfa16fed3260ed0e7147f7cc6da11a60208b5b9406d12a635614ffd91435460ff161561091257505061026c90611236565b6040516352d1902d60e01b81526001600160a01b03841690602081600481855afa869181610b43575b5061099c5760405162461bcd60e51b815260206004820152602e60248201527f45524331393637557067726164653a206e657720696d706c656d656e7461746960448201526d6f6e206973206e6f74205555505360901b6064820152608490fd5b60008051602061134783398151915203610aec576109b984611236565b604051907fbc7cd75a20ee27fd9adebab32041f755214dbc6bffa90cc0225b39da2e5c2d3b8680a2815115801590610ae4575b6109f8575b5050505080f35b833b15610a935750610a82928492839251915af43d15610a8c573d610a1c81610fb1565b90610a2a6040519283610f79565b81523d84602083013e5b60405191610a43606084610f79565b602783527f416464726573733a206c6f772d6c6576656c2064656c65676174652063616c6c6020840152660819985a5b195960ca1b60408401526112cf565b50388080806109f1565b6060610a34565b62461bcd60e51b815260206004820152602660248201527f416464726573733a2064656c65676174652063616c6c20746f206e6f6e2d636f6044820152651b9d1c9858dd60d21b6064820152608490fd5b5060016109ec565b60405162461bcd60e51b815260206004820152602960248201527f45524331393637557067726164653a20756e737570706f727465642070726f786044820152681a58589b195555525160ba1b6064820152608490fd5b9091506020813d602011610b6f575b81610b5f60209383610f79565b810103126102135751903861093b565b3d9150610b52565b503461022f578060031936011261022f5760cb546040516001600160a01b039091168152602090f35b503461022f57602036600319011261022f57610bba610f63565b610bf37f00000000000000000000000000000000000000000000000000000000000000006001600160a01b03166108b630821415611052565b610bfb611135565b6020604051610c0a8282610f79565b83815281810190601f1983013683377f4910fdfa16fed3260ed0e7147f7cc6da11a60208b5b9406d12a635614ffd91435460ff1615610c4f5750505061026c90611236565b6040516352d1902d60e01b8152939492936001600160a01b038616908581600481855afa859181610e9a575b50610cdc5760405162461bcd60e51b815260048101879052602e60248201527f45524331393637557067726164653a206e657720696d706c656d656e7461746960448201526d6f6e206973206e6f74205555505360901b6064820152608490fd5b9394937fc9f76b5ec45e5cdef99837d7b6d2467235c1df8933c8ca56df5c35afa2c7d44401610e4357610d0e86611236565b604051907fbc7cd75a20ee27fd9adebab32041f755214dbc6bffa90cc0225b39da2e5c2d3b8680a2815115801590610e3c575b610d4f575b50505050905080f35b853b15610deb57509280948192610dd89551915af43d15610de3573d90610d7582610fb1565b91610d836040519384610f79565b82523d858484013e5b7f416464726573733a206c6f772d6c6576656c2064656c65676174652063616c6c60405193610dbc606086610f79565b60278552840152660819985a5b195960ca1b60408401526112cf565b508038808080610d46565b606090610d8c565b62461bcd60e51b815260048101849052602660248201527f416464726573733a2064656c65676174652063616c6c20746f206e6f6e2d636f6044820152651b9d1c9858dd60d21b6064820152608490fd5b5084610d41565b60405162461bcd60e51b815260048101859052602960248201527f45524331393637557067726164653a20756e737570706f727465642070726f786044820152681a58589b195555525160ba1b6064820152608490fd5b9091508681813d8311610ec6575b610eb28183610f79565b81010312610ec257519038610c7b565b8580fd5b503d610ea8565b503461022f578060031936011261022f5760ca546040516001600160a01b039091168152602090f35b503461022f57602036600319011261022f5760ff6040602092600435815260c984522054166040519015158152f35b503461022f578060031936011261022f57602060ce54604051908152f35b905034610f5f5781600319360112610f5f5760209060cd548152f35b5080fd5b600435906001600160a01b038216820361021757565b90601f8019910116810190811067ffffffffffffffff821117610f9b57604052565b634e487b7160e01b600052604160045260246000fd5b67ffffffffffffffff8111610f9b57601f01601f191660200190565b9181601f840112156102175782359167ffffffffffffffff8311610217576020838186019501011161021757565b906060600319830112610217576004359160243567ffffffffffffffff8111610217578161102b91600401610fcd565b929092916044359067ffffffffffffffff82116102175761104e91600401610fcd565b9091565b1561105957565b60405162461bcd60e51b815260206004820152602c60248201527f46756e6374696f6e206d7573742062652063616c6c6564207468726f7567682060448201526b19195b1959d85d1958d85b1b60a21b6064820152608490fd5b156110ba57565b60405162461bcd60e51b815260206004820152602c60248201527f46756e6374696f6e206d7573742062652063616c6c6564207468726f7567682060448201526b6163746976652070726f787960a01b6064820152608490fd5b908060209392818452848401376000828201840152601f01601f1916010190565b6033546001600160a01b0316330361114957565b606460405162461bcd60e51b815260206004820152602060248201527f4f776e61626c653a2063616c6c6572206973206e6f7420746865206f776e65726044820152fd5b603380546001600160a01b039283166001600160a01b0319821681179092559091167f8be0079c531659141344cd1fd0a4f28419497f9722a3daafe3b4186f6b6457e0600080a3565b156111dd57565b60405162461bcd60e51b815260206004820152602b60248201527f496e697469616c697a61626c653a20636f6e7472616374206973206e6f74206960448201526a6e697469616c697a696e6760a81b6064820152608490fd5b803b156112745760018060a01b03166001600160601b0360a01b60008051602061134783398151915254161760008051602061134783398151915255565b60405162461bcd60e51b815260206004820152602d60248201527f455243313936373a206e657720696d706c656d656e746174696f6e206973206e60448201526c1bdd08184818dbdb9d1c9858dd609a1b6064820152608490fd5b909190156112db575090565b8151156112eb5750805190602001fd5b6040519062461bcd60e51b8252602060048301528181519182602483015260005b83811061132e5750508160006044809484010152601f80199101168101030190fd5b6020828201810151604487840101528593500161130c56fe360894a13ba1a3210667c828492db98dca3e2076cc3735a920a3ca505d382bbca26469706673582212200c10e074ede3642914a30202c432bbaf4e253cea9352d8b0ba0a6c20647733e464736f6c634300081c0033","linkReferences":{}},"methodIdentifiers":{"VERIFIER_MOCK_ADDRESS()":"83501b21","aggregatedProofs(bytes32)":"27d3bc9a","alignedAggregatorAddress()":"4c46688c","initialize(address,address,address,address,bytes32,bytes32)":"f28c3e37","owner()":"8da5cb5b","proxiableUUID()":"52d1902d","renounceOwnership()":"715018a6","risc0AggregatorProgramImageId()":"0751299c","risc0VerifierAddress()":"616af4f7","setRisc0AggregatorProgramImageId(bytes32)":"9367a05a","setRisc0VerifierAddress(address)":"a52f681b","setSP1AggregatorProgramVKHash(bytes32)":"9fc0984b","sp1AggregatorProgramVKHash()":"25c36fa5","sp1VerifierAddress()":"294e3ccb","transferOwnership(address)":"f2fde38b","upgradeTo(address)":"3659cfe6","upgradeToAndCall(address,bytes)":"4f1ef286","verifyRisc0(bytes32,bytes,bytes)":"54687ccf","verifySP1(bytes32,bytes,bytes)":"f6e04ac4"},"id":75}