{"abi":[{"type":"constructor","inputs":[{"name":"__avsDirectory","type":"address","internalType":"contract IAVSDirectory"},{"name":"__rewardsCoordinator","type":"address","internalType":"contract IRewardsCoordinator"},{"name":"__registryCoordinator","type":"address","internalType":"contract IRegistryCoordinator"},{"name":"__stakeRegistry","type":"address","internalType":"contract IStakeRegistry"}],"stateMutability":"nonpayable"},{"type":"receive","stateMutability":"payable"},{"type":"function","name":"alignedAggregator","inputs":[],"outputs":[{"name":"","type":"address","internalType":"address"}],"stateMutability":"view"},{"type":"function","name":"avsDirectory","inputs":[],"outputs":[{"name":"","type":"address","internalType":"address"}],"stateMutability":"view"},{"type":"function","name":"balanceOf","inputs":[{"name":"account","type":"address","internalType":"address"}],"outputs":[{"name":"","type":"uint256","internalType":"uint256"}],"stateMutability":"view"},{"type":"function","name":"batchersBalances","inputs":[{"name":"","type":"address","internalType":"address"}],"outputs":[{"name":"","type":"uint256","internalType":"uint256"}],"stateMutability":"view"},{"type":"function","name":"batchesState","inputs":[{"name":"","type":"bytes32","internalType":"bytes32"}],"outputs":[{"name":"taskCreatedBlock","type":"uint32","internalType":"uint32"},{"name":"responded","type":"bool","internalType":"bool"},{"name":"respondToTaskFeeLimit","type":"uint256","internalType":"uint256"}],"stateMutability":"view"},{"type":"function","name":"blsApkRegistry","inputs":[],"outputs":[{"name":"","type":"address","internalType":"contract IBLSApkRegistry"}],"stateMutability":"view"},{"type":"function","name":"checkPublicInput","inputs":[{"name":"publicInput","type":"bytes","internalType":"bytes"},{"name":"hash","type":"bytes32","internalType":"bytes32"}],"outputs":[{"name":"","type":"bool","internalType":"bool"}],"stateMutability":"pure"},{"type":"function","name":"checkSignatures","inputs":[{"name":"msgHash","type":"bytes32","internalType":"bytes32"},{"name":"referenceBlockNumber","type":"uint32","internalType":"uint32"},{"name":"params","type":"tuple","internalType":"struct IBLSSignatureChecker.NonSignerStakesAndSignature","components":[{"name":"nonSignerQuorumBitmapIndices","type":"uint32[]","internalType":"uint32[]"},{"name":"nonSignerPubkeys","type":"tuple[]","internalType":"struct BN254.G1Point[]","components":[{"name":"X","type":"uint256","internalType":"uint256"},{"name":"Y","type":"uint256","internalType":"uint256"}]},{"name":"quorumApks","type":"tuple[]","internalType":"struct BN254.G1Point[]","components":[{"name":"X","type":"uint256","internalType":"uint256"},{"name":"Y","type":"uint256","internalType":"uint256"}]},{"name":"apkG2","type":"tuple","internalType":"struct BN254.G2Point","components":[{"name":"X","type":"uint256[2]","internalType":"uint256[2]"},{"name":"Y","type":"uint256[2]","internalType":"uint256[2]"}]},{"name":"sigma","type":"tuple","internalType":"struct BN254.G1Point","components":[{"name":"X","type":"uint256","internalType":"uint256"},{"name":"Y","type":"uint256","internalType":"uint256"}]},{"name":"quorumApkIndices","type":"uint32[]","internalType":"uint32[]"},{"name":"totalStakeIndices","type":"uint32[]","internalType":"uint32[]"},{"name":"nonSignerStakeIndices","type":"uint32[][]","internalType":"uint32[][]"}]}],"outputs":[{"name":"","type":"tuple","internalType":"struct IBLSSignatureChecker.QuorumStakeTotals","components":[{"name":"signedStakeForQuorum","type":"uint96[]","internalType":"uint96[]"},{"name":"totalStakeForQuorum","type":"uint96[]","internalType":"uint96[]"}]},{"name":"","type":"bytes32","internalType":"bytes32"}],"stateMutability":"view"},{"type":"function","name":"createAVSRewardsSubmission","inputs":[{"name":"rewardsSubmissions","type":"tuple[]","internalType":"struct IRewardsCoordinator.RewardsSubmission[]","components":[{"name":"strategiesAndMultipliers","type":"tuple[]","internalType":"struct IRewardsCoordinator.StrategyAndMultiplier[]","components":[{"name":"strategy","type":"address","internalType":"contract IStrategy"},{"name":"multiplier","type":"uint96","internalType":"uint96"}]},{"name":"token","type":"address","internalType":"contract IERC20"},{"name":"amount","type":"uint256","internalType":"uint256"},{"name":"startTimestamp","type":"uint32","internalType":"uint32"},{"name":"duration","type":"uint32","internalType":"uint32"}]}],"outputs":[],"stateMutability":"nonpayable"},{"type":"function","name":"createNewTask","inputs":[{"name":"batchMerkleRoot","type":"bytes32","internalType":"bytes32"},{"name":"batchDataPointer","type":"string","internalType":"string"},{"name":"respondToTaskFeeLimit","type":"uint256","internalType":"uint256"}],"outputs":[],"stateMutability":"payable"},{"type":"function","name":"delegation","inputs":[],"outputs":[{"name":"","type":"address","internalType":"contract IDelegationManager"}],"stateMutability":"view"},{"type":"function","name":"depositToBatcher","inputs":[{"name":"account","type":"address","internalType":"address"}],"outputs":[],"stateMutability":"payable"},{"type":"function","name":"deregisterOperatorFromAVS","inputs":[{"name":"operator","type":"address","internalType":"address"}],"outputs":[],"stateMutability":"nonpayable"},{"type":"function","name":"disableVerifier","inputs":[{"name":"verifierIdx","type":"uint8","internalType":"uint8"}],"outputs":[],"stateMutability":"nonpayable"},{"type":"function","name":"disabledVerifiers","inputs":[],"outputs":[{"name":"","type":"uint256","internalType":"uint256"}],"stateMutability":"view"},{"type":"function","name":"enableVerifier","inputs":[{"name":"verifierIdx","type":"uint8","internalType":"uint8"}],"outputs":[],"stateMutability":"nonpayable"},{"type":"function","name":"getOperatorRestakedStrategies","inputs":[{"name":"operator","type":"address","internalType":"address"}],"outputs":[{"name":"","type":"address[]","internalType":"address[]"}],"stateMutability":"view"},{"type":"function","name":"getRestakeableStrategies","inputs":[],"outputs":[{"name":"","type":"address[]","internalType":"address[]"}],"stateMutability":"view"},{"type":"function","name":"initialize","inputs":[{"name":"_initialOwner","type":"address","internalType":"address"},{"name":"_rewardsInitiator","type":"address","internalType":"address"},{"name":"_alignedAggregator","type":"address","internalType":"address"},{"name":"_pauserRegistry","type":"address","internalType":"contract IPauserRegistry"},{"name":"_initialPausedStatus","type":"uint256","internalType":"uint256"}],"outputs":[],"stateMutability":"nonpayable"},{"type":"function","name":"isVerifierDisabled","inputs":[{"name":"verifierIdx","type":"uint8","internalType":"uint8"}],"outputs":[{"name":"","type":"bool","internalType":"bool"}],"stateMutability":"view"},{"type":"function","name":"owner","inputs":[],"outputs":[{"name":"","type":"address","internalType":"address"}],"stateMutability":"view"},{"type":"function","name":"pause","inputs":[{"name":"newPausedStatus","type":"uint256","internalType":"uint256"}],"outputs":[],"stateMutability":"nonpayable"},{"type":"function","name":"pauseAll","inputs":[],"outputs":[],"stateMutability":"nonpayable"},{"type":"function","name":"paused","inputs":[{"name":"index","type":"uint8","internalType":"uint8"}],"outputs":[{"name":"","type":"bool","internalType":"bool"}],"stateMutability":"view"},{"type":"function","name":"paused","inputs":[],"outputs":[{"name":"","type":"uint256","internalType":"uint256"}],"stateMutability":"view"},{"type":"function","name":"pauserRegistry","inputs":[],"outputs":[{"name":"","type":"address","internalType":"contract IPauserRegistry"}],"stateMutability":"view"},{"type":"function","name":"registerOperatorToAVS","inputs":[{"name":"operator","type":"address","internalType":"address"},{"name":"operatorSignature","type":"tuple","internalType":"struct ISignatureUtils.SignatureWithSaltAndExpiry","components":[{"name":"signature","type":"bytes","internalType":"bytes"},{"name":"salt","type":"bytes32","internalType":"bytes32"},{"name":"expiry","type":"uint256","internalType":"uint256"}]}],"outputs":[],"stateMutability":"nonpayable"},{"type":"function","name":"registryCoordinator","inputs":[],"outputs":[{"name":"","type":"address","internalType":"contract IRegistryCoordinator"}],"stateMutability":"view"},{"type":"function","name":"renounceOwnership","inputs":[],"outputs":[],"stateMutability":"nonpayable"},{"type":"function","name":"respondToTaskV2","inputs":[{"name":"batchMerkleRoot","type":"bytes32","internalType":"bytes32"},{"name":"senderAddress","type":"address","internalType":"address"},{"name":"nonSignerStakesAndSignature","type":"tuple","internalType":"struct IBLSSignatureChecker.NonSignerStakesAndSignature","components":[{"name":"nonSignerQuorumBitmapIndices","type":"uint32[]","internalType":"uint32[]"},{"name":"nonSignerPubkeys","type":"tuple[]","internalType":"struct BN254.G1Point[]","components":[{"name":"X","type":"uint256","internalType":"uint256"},{"name":"Y","type":"uint256","internalType":"uint256"}]},{"name":"quorumApks","type":"tuple[]","internalType":"struct BN254.G1Point[]","components":[{"name":"X","type":"uint256","internalType":"uint256"},{"name":"Y","type":"uint256","internalType":"uint256"}]},{"name":"apkG2","type":"tuple","internalType":"struct BN254.G2Point","components":[{"name":"X","type":"uint256[2]","internalType":"uint256[2]"},{"name":"Y","type":"uint256[2]","internalType":"uint256[2]"}]},{"name":"sigma","type":"tuple","internalType":"struct BN254.G1Point","components":[{"name":"X","type":"uint256","internalType":"uint256"},{"name":"Y","type":"uint256","internalType":"uint256"}]},{"name":"quorumApkIndices","type":"uint32[]","internalType":"uint32[]"},{"name":"totalStakeIndices","type":"uint32[]","internalType":"uint32[]"},{"name":"nonSignerStakeIndices","type":"uint32[][]","internalType":"uint32[][]"}]}],"outputs":[],"stateMutability":"nonpayable"},{"type":"function","name":"rewardsInitiator","inputs":[],"outputs":[{"name":"","type":"address","internalType":"address"}],"stateMutability":"view"},{"type":"function","name":"setAggregator","inputs":[{"name":"_alignedAggregator","type":"address","internalType":"address"}],"outputs":[],"stateMutability":"nonpayable"},{"type":"function","name":"setDisabledVerifiers","inputs":[{"name":"bitmap","type":"uint256","internalType":"uint256"}],"outputs":[],"stateMutability":"nonpayable"},{"type":"function","name":"setPauserRegistry","inputs":[{"name":"newPauserRegistry","type":"address","internalType":"contract IPauserRegistry"}],"outputs":[],"stateMutability":"nonpayable"},{"type":"function","name":"setRewardsInitiator","inputs":[{"name":"newRewardsInitiator","type":"address","internalType":"address"}],"outputs":[],"stateMutability":"nonpayable"},{"type":"function","name":"setStaleStakesForbidden","inputs":[{"name":"value","type":"bool","internalType":"bool"}],"outputs":[],"stateMutability":"nonpayable"},{"type":"function","name":"stakeRegistry","inputs":[],"outputs":[{"name":"","type":"address","internalType":"contract IStakeRegistry"}],"stateMutability":"view"},{"type":"function","name":"staleStakesForbidden","inputs":[],"outputs":[{"name":"","type":"bool","internalType":"bool"}],"stateMutability":"view"},{"type":"function","name":"transferOwnership","inputs":[{"name":"newOwner","type":"address","internalType":"address"}],"outputs":[],"stateMutability":"nonpayable"},{"type":"function","name":"trySignatureAndApkVerification","inputs":[{"name":"msgHash","type":"bytes32","internalType":"bytes32"},{"name":"apk","type":"tuple","internalType":"struct BN254.G1Point","components":[{"name":"X","type":"uint256","internalType":"uint256"},{"name":"Y","type":"uint256","internalType":"uint256"}]},{"name":"apkG2","type":"tuple","internalType":"struct BN254.G2Point","components":[{"name":"X","type":"uint256[2]","internalType":"uint256[2]"},{"name":"Y","type":"uint256[2]","internalType":"uint256[2]"}]},{"name":"sigma","type":"tuple","internalType":"struct BN254.G1Point","components":[{"name":"X","type":"uint256","internalType":"uint256"},{"name":"Y","type":"uint256","internalType":"uint256"}]}],"outputs":[{"name":"pairingSuccessful","type":"bool","internalType":"bool"},{"name":"siganatureIsValid","type":"bool","internalType":"bool"}],"stateMutability":"view"},{"type":"function","name":"unpause","inputs":[{"name":"newPausedStatus","type":"uint256","internalType":"uint256"}],"outputs":[],"stateMutability":"nonpayable"},{"type":"function","name":"updateAVSMetadataURI","inputs":[{"name":"_metadataURI","type":"string","internalType":"string"}],"outputs":[],"stateMutability":"nonpayable"},{"type":"function","name":"verifyBatchInclusion","inputs":[{"name":"proofCommitment","type":"bytes32","internalType":"bytes32"},{"name":"pubInputCommitment","type":"bytes32","internalType":"bytes32"},{"name":"provingSystemAuxDataCommitment","type":"bytes32","internalType":"bytes32"},{"name":"proofGeneratorAddr","type":"bytes20","internalType":"bytes20"},{"name":"batchMerkleRoot","type":"bytes32","internalType":"bytes32"},{"name":"merkleProof","type":"bytes","internalType":"bytes"},{"name":"verificationDataBatchIndex","type":"uint256","internalType":"uint256"},{"name":"senderAddress","type":"address","internalType":"address"}],"outputs":[{"name":"","type":"bool","internalType":"bool"}],"stateMutability":"view"},{"type":"function","name":"withdraw","inputs":[{"name":"amount","type":"uint256","internalType":"uint256"}],"outputs":[],"stateMutability":"nonpayable"},{"type":"event","name":"BatchVerified","inputs":[{"name":"batchMerkleRoot","type":"bytes32","indexed":true,"internalType":"bytes32"},{"name":"senderAddress","type":"address","indexed":false,"internalType":"address"}],"anonymous":false},{"type":"event","name":"BatcherBalanceUpdated","inputs":[{"name":"batcher","type":"address","indexed":true,"internalType":"address"},{"name":"newBalance","type":"uint256","indexed":false,"internalType":"uint256"}],"anonymous":false},{"type":"event","name":"Initialized","inputs":[{"name":"version","type":"uint8","indexed":false,"internalType":"uint8"}],"anonymous":false},{"type":"event","name":"NewBatchV2","inputs":[{"name":"batchMerkleRoot","type":"bytes32","indexed":true,"internalType":"bytes32"},{"name":"senderAddress","type":"address","indexed":false,"internalType":"address"},{"name":"taskCreatedBlock","type":"uint32","indexed":false,"internalType":"uint32"},{"name":"batchDataPointer","type":"string","indexed":false,"internalType":"string"}],"anonymous":false},{"type":"event","name":"NewBatchV3","inputs":[{"name":"batchMerkleRoot","type":"bytes32","indexed":true,"internalType":"bytes32"},{"name":"senderAddress","type":"address","indexed":false,"internalType":"address"},{"name":"taskCreatedBlock","type":"uint32","indexed":false,"internalType":"uint32"},{"name":"batchDataPointer","type":"string","indexed":false,"internalType":"string"},{"name":"respondToTaskFeeLimit","type":"uint256","indexed":false,"internalType":"uint256"}],"anonymous":false},{"type":"event","name":"OwnershipTransferred","inputs":[{"name":"previousOwner","type":"address","indexed":true,"internalType":"address"},{"name":"newOwner","type":"address","indexed":true,"internalType":"address"}],"anonymous":false},{"type":"event","name":"Paused","inputs":[{"name":"account","type":"address","indexed":true,"internalType":"address"},{"name":"newPausedStatus","type":"uint256","indexed":false,"internalType":"uint256"}],"anonymous":false},{"type":"event","name":"PauserRegistrySet","inputs":[{"name":"pauserRegistry","type":"address","indexed":false,"internalType":"contract IPauserRegistry"},{"name":"newPauserRegistry","type":"address","indexed":false,"internalType":"contract IPauserRegistry"}],"anonymous":false},{"type":"event","name":"RewardsInitiatorUpdated","inputs":[{"name":"prevRewardsInitiator","type":"address","indexed":false,"internalType":"address"},{"name":"newRewardsInitiator","type":"address","indexed":false,"internalType":"address"}],"anonymous":false},{"type":"event","name":"StaleStakesForbiddenUpdate","inputs":[{"name":"value","type":"bool","indexed":false,"internalType":"bool"}],"anonymous":false},{"type":"event","name":"Unpaused","inputs":[{"name":"account","type":"address","indexed":true,"internalType":"address"},{"name":"newPausedStatus","type":"uint256","indexed":false,"internalType":"uint256"}],"anonymous":false},{"type":"event","name":"VerifierDisabled","inputs":[{"name":"verifierIdx","type":"uint8","indexed":true,"internalType":"uint8"}],"anonymous":false},{"type":"event","name":"VerifierEnabled","inputs":[{"name":"verifierIdx","type":"uint8","indexed":true,"internalType":"uint8"}],"anonymous":false},{"type":"error","name":"BatchAlreadyResponded","inputs":[{"name":"batchIdentifierHash","type":"bytes32","internalType":"bytes32"}]},{"type":"error","name":"BatchAlreadySubmitted","inputs":[{"name":"batchIdentifierHash","type":"bytes32","internalType":"bytes32"}]},{"type":"error","name":"BatchDoesNotExist","inputs":[{"name":"batchIdentifierHash","type":"bytes32","internalType":"bytes32"}]},{"type":"error","name":"InsufficientFunds","inputs":[{"name":"batcher","type":"address","internalType":"address"},{"name":"required","type":"uint256","internalType":"uint256"},{"name":"available","type":"uint256","internalType":"uint256"}]},{"type":"error","name":"InvalidAddress","inputs":[{"name":"param","type":"string","internalType":"string"}]},{"type":"error","name":"InvalidDepositAmount","inputs":[{"name":"amount","type":"uint256","internalType":"uint256"}]},{"type":"error","name":"InvalidQuorumThreshold","inputs":[{"name":"signedStake","type":"uint256","internalType":"uint256"},{"name":"requiredStake","type":"uint256","internalType":"uint256"}]},{"type":"error","name":"SenderIsNotAggregator","inputs":[{"name":"sender","type":"address","internalType":"address"},{"name":"alignedAggregator","type":"address","internalType":"address"}]}],"bytecode":{"object":"0x61018060405234801561001157600080fd5b50604051616065380380616065833981016040819052610030916103fb565b6001600160a01b0380851660805280841660a05280831660c052811660e052818484828461005c610327565b50505050806001600160a01b0316610100816001600160a01b031681525050806001600160a01b031663683048356040518163ffffffff1660e01b8152600401602060405180830381865afa1580156100b9573d6000803e3d6000fd5b505050506040513d601f19601f820116820180604052508101906100dd919061045a565b6001600160a01b0316610120816001600160a01b031681525050806001600160a01b0316635df459466040518163ffffffff1660e01b8152600401602060405180830381865afa158015610135573d6000803e3d6000fd5b505050506040513d601f19601f82011682018060405250810190610159919061045a565b6001600160a01b0316610140816001600160a01b031681525050610120516001600160a01b031663df5cf7236040518163ffffffff1660e01b8152600401602060405180830381865afa1580156101b4573d6000803e3d6000fd5b505050506040513d601f19601f820116820180604052508101906101d8919061045a565b6001600160a01b03908116610160528516905061022c57604051630b0f5aa160e11b815260206004820152600c60248201526b6176734469726563746f727960a01b60448201526064015b60405180910390fd5b6001600160a01b03831661027857604051630b0f5aa160e11b81526020600482015260126024820152713932bbb0b93239a1b7b7b93234b730ba37b960711b6044820152606401610223565b6001600160a01b0382166102cf57604051630b0f5aa160e11b815260206004820152601360248201527f7265676973747279436f6f7264696e61746f72000000000000000000000000006044820152606401610223565b6001600160a01b03811661031657604051630b0f5aa160e11b815260206004820152600d60248201526c7374616b65526567697374727960981b6044820152606401610223565b61031e610327565b5050505061047e565b600054610100900460ff161561038f5760405162461bcd60e51b815260206004820152602760248201527f496e697469616c697a61626c653a20636f6e747261637420697320696e697469604482015266616c697a696e6760c81b6064820152608401610223565b60005460ff90811610156103e1576000805460ff191660ff9081179091556040519081527f7f26b83ff96e1f2b6a682f133852f6798a09c465da95921460cefb38474024989060200160405180910390a15b565b6001600160a01b03811681146103f857600080fd5b50565b6000806000806080858703121561041157600080fd5b845161041c816103e3565b602086015190945061042d816103e3565b604086015190935061043e816103e3565b606086015190925061044f816103e3565b939692955090935050565b60006020828403121561046c57600080fd5b8151610477816103e3565b9392505050565b60805160a05160c05160e05161010051610120516101405161016051615ada61058b600039600081816107d80152611c690152600081816105290152611e7c01526000818161055d0152818161206901526122590152600081816105c40152818161146f0152818161192f01528181611ad60152611d1d0152600081816111a7015281816112f80152818161138f01528181612e8201528181612ffb015261309a015260008181610fce0152818161105d015281816110dd01528181612619015281816126e501528181612dbd0152612f560152600081816137580152818161381401526138f701526000818161058e0152818161266d0152818161274101526127c00152615ada6000f3fe60806040526004361061026b5760003560e01c8063886f119511610144578063df5cf723116100b6578063f7013ef61161007a578063f7013ef614610872578063f9120af614610892578063fabc1cbc146108b2578063fc299dee146108d2578063fce36c7d146108f2578063fd4c3b7c1461091257600080fd5b8063df5cf723146107c6578063e481af9d146107fa578063ea5ca34b1461080f578063f2fde38b14610825578063f474b5201461084557600080fd5b8063a98fb35511610108578063a98fb355146106cf578063ab21739a146106ef578063b099627e1461070f578063b753645e14610779578063b98d090814610799578063d66eaabd146107b357600080fd5b8063886f1195146106315780638da5cb5b1461065157806395c6d6041461066f5780639926ee7d1461068f578063a364f4da146106af57600080fd5b80634a5bf632116101dd5780635df45946116101a15780635df4594614610517578063683048351461054b5780636b3aa72e1461057f5780636d14a987146105b257806370a08231146105e6578063715018a61461061c57600080fd5b80634a5bf6321461044d5780634ae07c3714610485578063595c6a67146104b35780635ac86ab7146104c85780635c975abb146104f857600080fd5b806318daeeaf1161022f57806318daeeaf1461038d5780632e1a7d4d146103ad57806333cfb7b7146103cd5780633bc28c8c146103fa578063416c7e5e1461041a5780634223d5511461043a57600080fd5b806306045a91146102b257806310d67a2f146102e7578063136439dd14610307578063137122b514610327578063171f1d5b1461035657600080fd5b366102ad5760fc546005906020908116036102a15760405162461bcd60e51b81526004016102989061495a565b60405180910390fd5b6102ab3334610932565b005b600080fd5b3480156102be57600080fd5b506102d26102cd366004614ab9565b6109c2565b60405190151581526020015b60405180910390f35b3480156102f357600080fd5b506102ab610302366004614b5a565b610ae4565b34801561031357600080fd5b506102ab610322366004614b77565b610b97565b34801561033357600080fd5b506102d2610342366004614b9f565b60cc54600160ff9092169190911b16151590565b34801561036257600080fd5b50610376610371366004614c7d565b610cd6565b6040805192151583529015156020830152016102de565b34801561039957600080fd5b506102ab6103a8366004614b9f565b610e60565b3480156103b957600080fd5b506102ab6103c8366004614b77565b610ea8565b3480156103d957600080fd5b506103ed6103e8366004614b5a565b610fa9565b6040516102de9190614cce565b34801561040657600080fd5b506102ab610415366004614b5a565b61145c565b34801561042657600080fd5b506102ab610435366004614d1d565b61146d565b6102ab610448366004614b5a565b6115a4565b34801561045957600080fd5b5060cb5461046d906001600160a01b031681565b6040516001600160a01b0390911681526020016102de565b34801561049157600080fd5b506104a56104a0366004615015565b6115da565b6040516102de9291906150b0565b3480156104bf57600080fd5b506102ab61250e565b3480156104d457600080fd5b506102d26104e3366004614b9f565b60fc54600160ff9092169190911b9081161490565b34801561050457600080fd5b5060fc545b6040519081526020016102de565b34801561052357600080fd5b5061046d7f000000000000000000000000000000000000000000000000000000000000000081565b34801561055757600080fd5b5061046d7f000000000000000000000000000000000000000000000000000000000000000081565b34801561058b57600080fd5b507f000000000000000000000000000000000000000000000000000000000000000061046d565b3480156105be57600080fd5b5061046d7f000000000000000000000000000000000000000000000000000000000000000081565b3480156105f257600080fd5b50610509610601366004614b5a565b6001600160a01b0316600090815260ca602052604090205490565b34801561062857600080fd5b506102ab6125d5565b34801561063d57600080fd5b5060fb5461046d906001600160a01b031681565b34801561065d57600080fd5b506033546001600160a01b031661046d565b34801561067b57600080fd5b506102d261068a366004615141565b6125e9565b34801561069b57600080fd5b506102ab6106aa36600461518c565b61260e565b3480156106bb57600080fd5b506102ab6106ca366004614b5a565b6126da565b3480156106db57600080fd5b506102ab6106ea366004615243565b6127a1565b3480156106fb57600080fd5b506102ab61070a366004615293565b6127f5565b34801561071b57600080fd5b5061075761072a366004614b77565b60c9602052600090815260409020805460019091015463ffffffff821691640100000000900460ff169083565b6040805163ffffffff90941684529115156020840152908201526060016102de565b34801561078557600080fd5b506102ab610794366004614b77565b612bc7565b3480156107a557600080fd5b506097546102d29060ff1681565b6102ab6107c13660046152ba565b612bd4565b3480156107d257600080fd5b5061046d7f000000000000000000000000000000000000000000000000000000000000000081565b34801561080657600080fd5b506103ed612db7565b34801561081b57600080fd5b5061050960cc5481565b34801561083157600080fd5b506102ab610840366004614b5a565b613163565b34801561085157600080fd5b50610509610860366004614b5a565b60ca6020526000908152604090205481565b34801561087e57600080fd5b506102ab61088d36600461530c565b6131d9565b34801561089e57600080fd5b506102ab6108ad366004614b5a565b6133f9565b3480156108be57600080fd5b506102ab6108cd366004614b77565b613423565b3480156108de57600080fd5b5060655461046d906001600160a01b031681565b3480156108fe57600080fd5b506102ab61090d366004615370565b61357f565b34801561091e57600080fd5b506102ab61092d366004614b9f565b61392e565b8060000361095657604051632097692160e11b815260048101829052602401610298565b6001600160a01b038216600090815260ca60205260408120805483929061097e9084906153fb565b90915550506001600160a01b038216600081815260ca6020908152604091829020549151918252600080516020615a65833981519152910160405180910390a25050565b60fc546000906002906004908116036109ed5760405162461bcd60e51b81526004016102989061495a565b60006001600160a01b038416610a04575085610a30565b8684604051602001610a1792919061540e565b6040516020818303038152906040528051906020012090505b600081815260c9602052604081205463ffffffff169003610a55576000925050610ad7565b600081815260c96020526040902054640100000000900460ff16610a7d576000925050610ad7565b60408051602081018d90529081018b9052606081018a90526001600160601b03198916608082015260009060940160408051601f1981840301815291905280516020820120909150610ad1888a838a613975565b94505050505b5098975050505050505050565b60fb60009054906101000a90046001600160a01b03166001600160a01b031663eab66d7a6040518163ffffffff1660e01b8152600401602060405180830381865afa158015610b37573d6000803e3d6000fd5b505050506040513d601f19601f82011682018060405250810190610b5b9190615429565b6001600160a01b0316336001600160a01b031614610b8b5760405162461bcd60e51b815260040161029890615446565b610b948161398d565b50565b60fb5460405163237dfb4760e11b81523360048201526001600160a01b03909116906346fbf68e90602401602060405180830381865afa158015610bdf573d6000803e3d6000fd5b505050506040513d601f19601f82011682018060405250810190610c039190615490565b610c1f5760405162461bcd60e51b8152600401610298906154ad565b60fc5481811614610c985760405162461bcd60e51b815260206004820152603860248201527f5061757361626c652e70617573653a20696e76616c696420617474656d70742060448201527f746f20756e70617573652066756e6374696f6e616c69747900000000000000006064820152608401610298565b60fc81905560405181815233907fab40a374bc51de372200a8bc981af8c9ecdc08dfdaef0bb6e09f88f3c616ef3d906020015b60405180910390a250565b60008060007f30644e72e131a029b85045b68181585d2833e84879b9709143e1f593f000000187876000015188602001518860000151600060028110610d1e57610d1e6154f5565b60200201518951600160200201518a60200151600060028110610d4357610d436154f5565b60200201518b60200151600160028110610d5f57610d5f6154f5565b602090810291909101518c518d830151604051610dbc9a99989796959401988952602089019790975260408801959095526060870193909352608086019190915260a085015260c084015260e08301526101008201526101200190565b6040516020818303038152906040528051906020012060001c610ddf919061550b565b9050610e52610df8610df18884613a84565b8690613b15565b610e00613baa565b610e48610e3985610e33604080518082018252600080825260209182015281518083019092526001825260029082015290565b90613a84565b610e428c613c6a565b90613b15565b886201d4c0613cf9565b909890975095505050505050565b610e68613f13565b60cc8054600160ff841690811b199091169091556040517f5f52704e8e0190647930ccde0e43e14e89902d7d8c49c5f9e2544029f45ec12a90600090a250565b60fc54600390600890811603610ed05760405162461bcd60e51b81526004016102989061495a565b33600090815260ca6020526040902054821115610f215733600081815260ca602052604090819020549051632e2a182f60e11b81526004810192909252602482018490526044820152606401610298565b33600090815260ca602052604081208054849290610f4090849061552d565b909155505033600081815260ca6020908152604091829020549151918252600080516020615a65833981519152910160405180910390a2604051339083156108fc029084906000818181858888f19350505050158015610fa4573d6000803e3d6000fd5b505050565b6040516309aa152760e11b81526001600160a01b0382811660048301526060916000917f000000000000000000000000000000000000000000000000000000000000000016906313542a4e90602401602060405180830381865afa158015611015573d6000803e3d6000fd5b505050506040513d601f19601f820116820180604052508101906110399190615540565b60405163871ef04960e01b8152600481018290529091506000906001600160a01b037f0000000000000000000000000000000000000000000000000000000000000000169063871ef04990602401602060405180830381865afa1580156110a4573d6000803e3d6000fd5b505050506040513d601f19601f820116820180604052508101906110c89190615559565b90506001600160c01b038116158061116257507f00000000000000000000000000000000000000000000000000000000000000006001600160a01b0316639aa1653d6040518163ffffffff1660e01b8152600401602060405180830381865afa158015611139573d6000803e3d6000fd5b505050506040513d601f19601f8201168201806040525081019061115d9190615582565b60ff16155b156111825760408051600080825260208201909252905b50949350505050565b6000611196826001600160c01b0316613f6d565b90506000805b8251811015611262577f00000000000000000000000000000000000000000000000000000000000000006001600160a01b0316633ca5a5f58483815181106111e6576111e66154f5565b01602001516040516001600160e01b031960e084901b16815260f89190911c6004820152602401602060405180830381865afa15801561122a573d6000803e3d6000fd5b505050506040513d601f19601f8201168201806040525081019061124e9190615540565b61125890836153fb565b915060010161119c565b506000816001600160401b0381111561127d5761127d614991565b6040519080825280602002602001820160405280156112a6578160200160208202803683370190505b5090506000805b845181101561144f5760008582815181106112ca576112ca6154f5565b0160200151604051633ca5a5f560e01b815260f89190911c6004820181905291506000906001600160a01b037f00000000000000000000000000000000000000000000000000000000000000001690633ca5a5f590602401602060405180830381865afa15801561133f573d6000803e3d6000fd5b505050506040513d601f19601f820116820180604052508101906113639190615540565b905060005b81811015611444576040516356e4026d60e11b815260ff84166004820152602481018290527f00000000000000000000000000000000000000000000000000000000000000006001600160a01b03169063adc804da906044016040805180830381865afa1580156113dd573d6000803e3d6000fd5b505050506040513d601f19601f8201168201806040525081019061140191906155b4565b60000151868681518110611417576114176154f5565b6001600160a01b039092166020928302919091019091015284611439816155f7565b955050600101611368565b5050506001016112ad565b5090979650505050505050565b611464613f13565b610b948161402f565b7f00000000000000000000000000000000000000000000000000000000000000006001600160a01b0316638da5cb5b6040518163ffffffff1660e01b8152600401602060405180830381865afa1580156114cb573d6000803e3d6000fd5b505050506040513d601f19601f820116820180604052508101906114ef9190615429565b6001600160a01b0316336001600160a01b03161461159b5760405162461bcd60e51b815260206004820152605c60248201527f424c535369676e6174757265436865636b65722e6f6e6c79436f6f7264696e6160448201527f746f724f776e65723a2063616c6c6572206973206e6f7420746865206f776e6560648201527f72206f6620746865207265676973747279436f6f7264696e61746f7200000000608482015260a401610298565b610b9481614098565b60fc546004906010908116036115cc5760405162461bcd60e51b81526004016102989061495a565b6115d68234610932565b5050565b6040805180820190915260608082526020820152600082604001515160405180604001604052806001815260200160008152505114801561163657508260a0015151604051806040016040528060018152602001600081525051145b801561165d57508260c0015151604051806040016040528060018152602001600081525051145b801561168457508260e0015151604051806040016040528060018152602001600081525051145b6116ee5760405162461bcd60e51b81526020600482015260416024820152600080516020615a8583398151915260448201527f7265733a20696e7075742071756f72756d206c656e677468206d69736d6174636064820152600d60fb1b608482015260a401610298565b825151602084015151146117665760405162461bcd60e51b815260206004820152604460248201819052600080516020615a85833981519152908201527f7265733a20696e707574206e6f6e7369676e6572206c656e677468206d69736d6064820152630c2e8c6d60e31b608482015260a401610298565b4363ffffffff168463ffffffff16106117d55760405162461bcd60e51b815260206004820152603c6024820152600080516020615a8583398151915260448201527f7265733a20696e76616c6964207265666572656e636520626c6f636b000000006064820152608401610298565b60408051808201825260008082526020808301829052835180850185526060808252818301528451808601865260018082529083019390935284518381528086019095529293919082810190803683370190505060208281019190915260408051808201825260018082526000919093015280518281528082019091529081602001602082028036833701905050815260408051808201909152606080825260208201528560200151516001600160401b0381111561189657611896614991565b6040519080825280602002602001820160405280156118bf578160200160208202803683370190505b5081526020860151516001600160401b038111156118df576118df614991565b604051908082528060200260200182016040528015611908578160200160208202803683370190505b50816020018190525060006119b460405180604001604052806001815260200160008152507f00000000000000000000000000000000000000000000000000000000000000006001600160a01b0316639aa1653d6040518163ffffffff1660e01b8152600401602060405180830381865afa15801561198b573d6000803e3d6000fd5b505050506040513d601f19601f820116820180604052508101906119af9190615582565b6140df565b905060005b876020015151811015611c45576119fe886020015182815181106119df576119df6154f5565b6020026020010151805160009081526020918201519091526040902090565b83602001518281518110611a1457611a146154f5565b60209081029190910101528015611ad4576020830151611a3560018361552d565b81518110611a4557611a456154f5565b602002602001015160001c83602001518281518110611a6657611a666154f5565b602002602001015160001c11611ad4576040805162461bcd60e51b8152602060048201526024810191909152600080516020615a8583398151915260448201527f7265733a206e6f6e5369676e65725075626b657973206e6f7420736f727465646064820152608401610298565b7f00000000000000000000000000000000000000000000000000000000000000006001600160a01b03166304ec635184602001518381518110611b1957611b196154f5565b60200260200101518b8b600001518581518110611b3857611b386154f5565b60200260200101516040518463ffffffff1660e01b8152600401611b759392919092835263ffffffff918216602084015216604082015260600190565b602060405180830381865afa158015611b92573d6000803e3d6000fd5b505050506040513d601f19601f82011682018060405250810190611bb69190615559565b6001600160c01b031683600001518281518110611bd557611bd56154f5565b602002602001018181525050611c3b610df1611c0f8486600001518581518110611c0157611c016154f5565b602002602001015116614172565b8a602001518481518110611c2557611c256154f5565b602002602001015161419d90919063ffffffff16565b94506001016119b9565b5050611c5083614280565b60975490935060ff16600081611c67576000611ce9565b7f00000000000000000000000000000000000000000000000000000000000000006001600160a01b031663c448feb86040518163ffffffff1660e01b8152600401602060405180830381865afa158015611cc5573d6000803e3d6000fd5b505050506040513d601f19601f82011682018060405250810190611ce99190615540565b905060005b6040518060400160405280600181526020016000815250518110156123df578215611e7a578963ffffffff16827f00000000000000000000000000000000000000000000000000000000000000006001600160a01b031663249a0c4260405180604001604052806001815260200160008152508581518110611d7257611d726154f5565b01602001516040516001600160e01b031960e084901b16815260f89190911c6004820152602401602060405180830381865afa158015611db6573d6000803e3d6000fd5b505050506040513d601f19601f82011682018060405250810190611dda9190615540565b611de491906153fb565b11611e7a5760405162461bcd60e51b81526020600482015260666024820152600080516020615a8583398151915260448201527f7265733a205374616b6552656769737472792075706461746573206d7573742060648201527f62652077697468696e207769746864726177616c44656c6179426c6f636b732060848201526577696e646f7760d01b60a482015260c401610298565b7f00000000000000000000000000000000000000000000000000000000000000006001600160a01b03166368bccaac60405180604001604052806001815260200160008152508381518110611ed157611ed16154f5565b602001015160f81c60f81b60f81c8c8c60a001518581518110611ef657611ef66154f5565b60209081029190910101516040516001600160e01b031960e086901b16815260ff909316600484015263ffffffff9182166024840152166044820152606401602060405180830381865afa158015611f52573d6000803e3d6000fd5b505050506040513d601f19601f82011682018060405250810190611f769190615610565b6001600160401b031916611f998a6040015183815181106119df576119df6154f5565b67ffffffffffffffff1916146120355760405162461bcd60e51b81526020600482015260616024820152600080516020615a8583398151915260448201527f7265733a2071756f72756d41706b206861736820696e2073746f72616765206460648201527f6f6573206e6f74206d617463682070726f76696465642071756f72756d2061706084820152606b60f81b60a482015260c401610298565b6120658960400151828151811061204e5761204e6154f5565b602002602001015187613b1590919063ffffffff16565b95507f00000000000000000000000000000000000000000000000000000000000000006001600160a01b031663c8294c56604051806040016040528060018152602001600081525083815181106120be576120be6154f5565b602001015160f81c60f81b60f81c8c8c60c0015185815181106120e3576120e36154f5565b60209081029190910101516040516001600160e01b031960e086901b16815260ff909316600484015263ffffffff9182166024840152166044820152606401602060405180830381865afa15801561213f573d6000803e3d6000fd5b505050506040513d601f19601f82011682018060405250810190612163919061563b565b85602001518281518110612179576121796154f5565b6001600160601b039092166020928302919091018201528501518051829081106121a5576121a56154f5565b6020026020010151856000015182815181106121c3576121c36154f5565b60200260200101906001600160601b031690816001600160601b0316815250506000805b8a60200151518110156123d5576122528660000151828151811061220d5761220d6154f5565b60200260200101516040518060400160405280600181526020016000815250858151811061223d5761223d6154f5565b016020015160f81c60ff161c60019081161490565b156123cd577f00000000000000000000000000000000000000000000000000000000000000006001600160a01b031663f2be94ae604051806040016040528060018152602001600081525085815181106122ae576122ae6154f5565b602001015160f81c60f81b60f81c8e896020015185815181106122d3576122d36154f5565b60200260200101518f60e0015188815181106122f1576122f16154f5565b6020026020010151878151811061230a5761230a6154f5565b60209081029190910101516040516001600160e01b031960e087901b16815260ff909416600485015263ffffffff92831660248501526044840191909152166064820152608401602060405180830381865afa15801561236e573d6000803e3d6000fd5b505050506040513d601f19601f82011682018060405250810190612392919061563b565b87518051859081106123a6576123a66154f5565b602002602001018181516123ba9190615658565b6001600160601b03169052506001909101905b6001016121e7565b5050600101611cee565b5050506000806123f98a868a606001518b60800151610cd6565b915091508161246a5760405162461bcd60e51b81526020600482015260436024820152600080516020615a8583398151915260448201527f7265733a2070616972696e6720707265636f6d70696c652063616c6c206661696064820152621b195960ea1b608482015260a401610298565b806124cb5760405162461bcd60e51b81526020600482015260396024820152600080516020615a8583398151915260448201527f7265733a207369676e617475726520697320696e76616c6964000000000000006064820152608401610298565b505060008782602001516040516020016124e6929190615677565b60408051808303601f1901815291905280516020909101209299929850919650505050505050565b60fb5460405163237dfb4760e11b81523360048201526001600160a01b03909116906346fbf68e90602401602060405180830381865afa158015612556573d6000803e3d6000fd5b505050506040513d601f19601f8201168201806040525081019061257a9190615490565b6125965760405162461bcd60e51b8152600401610298906154ad565b60001960fc81905560405190815233907fab40a374bc51de372200a8bc981af8c9ecdc08dfdaef0bb6e09f88f3c616ef3d9060200160405180910390a2565b6125dd613f13565b6125e7600061431b565b565b60008184846040516125fc9291906156bf565b60405180910390201490509392505050565b336001600160a01b037f000000000000000000000000000000000000000000000000000000000000000016146126565760405162461bcd60e51b8152600401610298906156cf565b604051639926ee7d60e01b81526001600160a01b037f00000000000000000000000000000000000000000000000000000000000000001690639926ee7d906126a4908590859060040161578d565b600060405180830381600087803b1580156126be57600080fd5b505af11580156126d2573d6000803e3d6000fd5b505050505050565b336001600160a01b037f000000000000000000000000000000000000000000000000000000000000000016146127225760405162461bcd60e51b8152600401610298906156cf565b6040516351b27a6d60e11b81526001600160a01b0382811660048301527f0000000000000000000000000000000000000000000000000000000000000000169063a364f4da906024015b600060405180830381600087803b15801561278657600080fd5b505af115801561279a573d6000803e3d6000fd5b5050505050565b6127a9613f13565b60405163a98fb35560e01b81526001600160a01b037f0000000000000000000000000000000000000000000000000000000000000000169063a98fb3559061276c9084906004016157d8565b60cb546001600160a01b031633146128355760cb54604051632cbe419560e01b81523360048201526001600160a01b039091166024820152604401610298565b60fc5460019060029081160361285d5760405162461bcd60e51b81526004016102989061495a565b60005a90506000858560405160200161287792919061540e565b60408051601f198184030181529181528151602092830120600081815260c990935290822080549193509163ffffffff90911690036128cc576040516311cb69a760e11b815260048101839052602401610298565b8054640100000000900460ff16156128fa57604051634e78d7f960e11b815260048101839052602401610298565b805464ff00000000191664010000000017815560018101546001600160a01b038716600090815260ca6020526040902054101561297d5760018101546001600160a01b038716600081815260ca602052604090819020549051632e2a182f60e11b8152600481019290925260248201929092526044810191909152606401610298565b805460009061299490849063ffffffff16886115da565b509050604360ff1681602001516000815181106129b3576129b36154f5565b60200260200101516129c591906157eb565b6001600160601b0316606482600001516000815181106129e7576129e76154f5565b60200260200101516001600160601b0316612a029190615814565b1015612a955760648160000151600081518110612a2157612a216154f5565b60200260200101516001600160601b0316612a3c9190615814565b604360ff168260200151600081518110612a5857612a586154f5565b6020026020010151612a6a91906157eb565b60405163530f5c4560e11b815260048101929092526001600160601b03166024820152604401610298565b6040516001600160a01b038816815288907f8511746b73275e06971968773119b9601fc501d7bdf3824d8754042d148940e29060200160405180910390a260003a5a612ae1908761552d565b612aee90620111706153fb565b612af89190615814565b9050600083600101548210612b11578360010154612b13565b815b6001600160a01b038a16600090815260ca6020526040812080549293508392909190612b4090849061552d565b90915550506001600160a01b038916600081815260ca6020908152604091829020549151918252600080516020615a65833981519152910160405180910390a260cb546040516001600160a01b039091169082156108fc029083906000818181858888f19350505050158015612bba573d6000803e3d6000fd5b5050505050505050505050565b612bcf613f13565b60cc55565b60fc54600090600190811603612bfc5760405162461bcd60e51b81526004016102989061495a565b60008533604051602001612c1192919061540e565b60408051601f198184030181529181528151602092830120600081815260c990935291205490915063ffffffff1615612c6057604051630c40bc4360e21b815260048101829052602401610298565b3415612cbd5733600090815260ca602052604081208054349290612c859084906153fb565b909155505033600081815260ca6020908152604091829020549151918252600080516020615a65833981519152910160405180910390a25b33600090815260ca6020526040902054831115612d0e5733600081815260ca602052604090819020549051632e2a182f60e11b81526004810192909252602482018590526044820152606401610298565b604080516060810182526000602080830182815263ffffffff4381811686528587018a815288865260c99094529386902085518154935115156401000000000264ffffffffff1990941692169190911791909117815590516001909101559151909188917f8801fc966deb2c8f563a103c35c9e80740585c292cd97518587e6e7927e6af5591612da6913391908b908b908b9061582b565b60405180910390a250505050505050565b606060007f00000000000000000000000000000000000000000000000000000000000000006001600160a01b0316639aa1653d6040518163ffffffff1660e01b8152600401602060405180830381865afa158015612e19573d6000803e3d6000fd5b505050506040513d601f19601f82011682018060405250810190612e3d9190615582565b60ff16905080600003612e5e57505060408051600081526020810190915290565b6000805b82811015612f0957604051633ca5a5f560e01b815260ff821660048201527f00000000000000000000000000000000000000000000000000000000000000006001600160a01b031690633ca5a5f590602401602060405180830381865afa158015612ed1573d6000803e3d6000fd5b505050506040513d601f19601f82011682018060405250810190612ef59190615540565b612eff90836153fb565b9150600101612e62565b506000816001600160401b03811115612f2457612f24614991565b604051908082528060200260200182016040528015612f4d578160200160208202803683370190505b5090506000805b7f00000000000000000000000000000000000000000000000000000000000000006001600160a01b0316639aa1653d6040518163ffffffff1660e01b8152600401602060405180830381865afa158015612fb2573d6000803e3d6000fd5b505050506040513d601f19601f82011682018060405250810190612fd69190615582565b60ff1681101561315957604051633ca5a5f560e01b815260ff821660048201526000907f00000000000000000000000000000000000000000000000000000000000000006001600160a01b031690633ca5a5f590602401602060405180830381865afa15801561304a573d6000803e3d6000fd5b505050506040513d601f19601f8201168201806040525081019061306e9190615540565b905060005b8181101561314f576040516356e4026d60e11b815260ff84166004820152602481018290527f00000000000000000000000000000000000000000000000000000000000000006001600160a01b03169063adc804da906044016040805180830381865afa1580156130e8573d6000803e3d6000fd5b505050506040513d601f19601f8201168201806040525081019061310c91906155b4565b60000151858581518110613122576131226154f5565b6001600160a01b039092166020928302919091019091015283613144816155f7565b945050600101613073565b5050600101612f54565b5090949350505050565b61316b613f13565b6001600160a01b0381166131d05760405162461bcd60e51b815260206004820152602660248201527f4f776e61626c653a206e6577206f776e657220697320746865207a65726f206160448201526564647265737360d01b6064820152608401610298565b610b948161431b565b600054610100900460ff16158080156131f95750600054600160ff909116105b806132135750303b158015613213575060005460ff166001145b6132765760405162461bcd60e51b815260206004820152602e60248201527f496e697469616c697a61626c653a20636f6e747261637420697320616c72656160448201526d191e481a5b9a5d1a585b1a5e995960921b6064820152608401610298565b6000805460ff191660011790558015613299576000805461ff0019166101001790555b6001600160a01b0386166132df57604051630b0f5aa160e11b815260206004820152600c60248201526b34b734ba34b0b627bbb732b960a11b6044820152606401610298565b6001600160a01b03851661332957604051630b0f5aa160e11b815260206004820152601060248201526f3932bbb0b93239a4b734ba34b0ba37b960811b6044820152606401610298565b6001600160a01b03841661337457604051630b0f5aa160e11b815260206004820152601160248201527030b634b3b732b220b3b3b932b3b0ba37b960791b6044820152606401610298565b61337e868661436d565b60cb80546001600160a01b0319166001600160a01b0386161790556133a28661431b565b6133ac83836143ea565b80156126d2576000805461ff0019169055604051600181527f7f26b83ff96e1f2b6a682f133852f6798a09c465da95921460cefb38474024989060200160405180910390a1505050505050565b613401613f13565b60cb80546001600160a01b0319166001600160a01b0392909216919091179055565b60fb60009054906101000a90046001600160a01b03166001600160a01b031663eab66d7a6040518163ffffffff1660e01b8152600401602060405180830381865afa158015613476573d6000803e3d6000fd5b505050506040513d601f19601f8201168201806040525081019061349a9190615429565b6001600160a01b0316336001600160a01b0316146134ca5760405162461bcd60e51b815260040161029890615446565b60fc5419811960fc541916146135485760405162461bcd60e51b815260206004820152603860248201527f5061757361626c652e756e70617573653a20696e76616c696420617474656d7060448201527f7420746f2070617573652066756e6374696f6e616c69747900000000000000006064820152608401610298565b60fc81905560405181815233907f3582d1828e26bf56bd801502bc021ac0bc8afb57c826e4986b45593c8fad389c90602001610ccb565b6065546001600160a01b031633146136145760405162461bcd60e51b815260206004820152604c60248201527f536572766963654d616e61676572426173652e6f6e6c7952657761726473496e60448201527f69746961746f723a2063616c6c6572206973206e6f742074686520726577617260648201526b32399034b734ba34b0ba37b960a11b608482015260a401610298565b60005b818110156138df57828282818110613631576136316154f5565b90506020028101906136439190615882565b613654906040810190602001614b5a565b6001600160a01b03166323b872dd3330868686818110613676576136766154f5565b90506020028101906136889190615882565b604080516001600160e01b031960e087901b1681526001600160a01b039485166004820152939092166024840152013560448201526064016020604051808303816000875af11580156136df573d6000803e3d6000fd5b505050506040513d601f19601f820116820180604052508101906137039190615490565b506000838383818110613718576137186154f5565b905060200281019061372a9190615882565b61373b906040810190602001614b5a565b604051636eb1769f60e11b81523060048201526001600160a01b037f000000000000000000000000000000000000000000000000000000000000000081166024830152919091169063dd62ed3e90604401602060405180830381865afa1580156137a9573d6000803e3d6000fd5b505050506040513d601f19601f820116820180604052508101906137cd9190615540565b90508383838181106137e1576137e16154f5565b90506020028101906137f39190615882565b613804906040810190602001614b5a565b6001600160a01b031663095ea7b37f000000000000000000000000000000000000000000000000000000000000000083878787818110613846576138466154f5565b90506020028101906138589190615882565b6040013561386691906153fb565b6040516001600160e01b031960e085901b1681526001600160a01b03909216600483015260248201526044016020604051808303816000875af11580156138b1573d6000803e3d6000fd5b505050506040513d601f19601f820116820180604052508101906138d59190615490565b5050600101613617565b5060405163fce36c7d60e01b81526001600160a01b037f0000000000000000000000000000000000000000000000000000000000000000169063fce36c7d906126a49085908590600401615909565b613936613f13565b60cc8054600160ff841690811b9091179091556040517fec54a85c01b5fc7fb41be0f33eabc56f2981110da8317b9817bc7c718f6d7bfe90600090a250565b6000836139838685856144d0565b1495945050505050565b6001600160a01b038116613a1b5760405162461bcd60e51b815260206004820152604960248201527f5061757361626c652e5f73657450617573657252656769737472793a206e657760448201527f50617573657252656769737472792063616e6e6f7420626520746865207a65726064820152686f206164647265737360b81b608482015260a401610298565b60fb54604080516001600160a01b03928316815291831660208301527f6e9fcd539896fca60e8b0f01dd580233e48a6b0f7df013b89ba7f565869acdb6910160405180910390a160fb80546001600160a01b0319166001600160a01b0392909216919091179055565b6040805180820190915260008082526020820152613aa0614880565b835181526020808501519082015260408082018490526000908360608460076107d05a03fa90508080613acf57fe5b5080613b0d5760405162461bcd60e51b815260206004820152600d60248201526c1958cb5b5d5b0b59985a5b1959609a1b6044820152606401610298565b505092915050565b6040805180820190915260008082526020820152613b3161489e565b835181526020808501518183015283516040808401919091529084015160608301526000908360808460066107d05a03fa90508080613b6c57fe5b5080613b0d5760405162461bcd60e51b815260206004820152600d60248201526c1958cb5859190b59985a5b1959609a1b6044820152606401610298565b613bb26148bc565b50604080516080810182527f198e9393920d483a7260bfb731fb5d25f1aa493335a9e71297e485b7aef312c28183019081527f1800deef121f1e76426a00665e5c4479674322d4f75edadd46debd5cd992f6ed6060830152815281518083019092527f275dc4a288d1afb3cbb1ac09187524c7db36395df7be3b99e673b13a075a65ec82527f1d9befcd05a5323e6da4d435f3b617cdb3af83285c2df711ef39c01571827f9d60208381019190915281019190915290565b604080518082019091526000808252602082015260008080613c9a600080516020615a458339815191528661550b565b90505b613ca6816145cd565b9093509150600080516020615a458339815191528283098303613cdf576040805180820190915290815260208101919091529392505050565b600080516020615a45833981519152600182089050613c9d565b604080518082018252868152602080820186905282518084019093528683528201849052600091829190613d2b6148e1565b60005b6002811015613ee6576000613d44826006615814565b9050848260028110613d5857613d586154f5565b60200201515183613d6a8360006153fb565b600c8110613d7a57613d7a6154f5565b6020020152848260028110613d9157613d916154f5565b60200201516020015183826001613da891906153fb565b600c8110613db857613db86154f5565b6020020152838260028110613dcf57613dcf6154f5565b6020020151515183613de28360026153fb565b600c8110613df257613df26154f5565b6020020152838260028110613e0957613e096154f5565b6020020151516001602002015183613e228360036153fb565b600c8110613e3257613e326154f5565b6020020152838260028110613e4957613e496154f5565b602002015160200151600060028110613e6457613e646154f5565b602002015183613e758360046153fb565b600c8110613e8557613e856154f5565b6020020152838260028110613e9c57613e9c6154f5565b602002015160200151600160028110613eb757613eb76154f5565b602002015183613ec88360056153fb565b600c8110613ed857613ed86154f5565b602002015250600101613d2e565b50613eef614900565b60006020826101808560088cfa9151919c9115159b50909950505050505050505050565b6033546001600160a01b031633146125e75760405162461bcd60e51b815260206004820181905260248201527f4f776e61626c653a2063616c6c6572206973206e6f7420746865206f776e65726044820152606401610298565b6060600080613f7b84614172565b61ffff166001600160401b03811115613f9657613f96614991565b6040519080825280601f01601f191660200182016040528015613fc0576020820181803683370190505b5090506000805b825182108015613fd8575061010081105b15613159576001811b93508584161561401f578060f81b838381518110614001576140016154f5565b60200101906001600160f81b031916908160001a9053508160010191505b614028816155f7565b9050613fc7565b606554604080516001600160a01b03928316815291831660208301527fe11cddf1816a43318ca175bbc52cd0185436e9cbead7c83acc54a73e461717e3910160405180910390a1606580546001600160a01b0319166001600160a01b0392909216919091179055565b6097805460ff19168215159081179091556040519081527f40e4ed880a29e0f6ddce307457fb75cddf4feef7d3ecb0301bfdf4976a0e2dfc9060200160405180910390a150565b6000806140eb8461464f565b9050808360ff166001901b116141695760405162461bcd60e51b815260206004820152603f60248201527f4269746d61705574696c732e6f72646572656442797465734172726179546f4260448201527f69746d61703a206269746d61702065786365656473206d61782076616c7565006064820152608401610298565b90505b92915050565b6000805b821561416c5761418760018461552d565b909216918061419581615a23565b915050614176565b60408051808201909152600080825260208201526102008261ffff16106141f95760405162461bcd60e51b815260206004820152601060248201526f7363616c61722d746f6f2d6c6172676560801b6044820152606401610298565b8161ffff1660010361420c57508161416c565b6040805180820190915260008082526020820181905284906001905b8161ffff168661ffff161061427557600161ffff871660ff83161c81169003614258576142558484613b15565b93505b6142628384613b15565b92506201fffe600192831b169101614228565b509195945050505050565b604080518082019091526000808252602082015281511580156142a557506020820151155b156142c3575050604080518082019091526000808252602082015290565b604051806040016040528083600001518152602001600080516020615a4583398151915284602001516142f6919061550b565b61430e90600080516020615a4583398151915261552d565b905292915050565b919050565b603380546001600160a01b038381166001600160a01b0319831681179093556040519116919082907f8be0079c531659141344cd1fd0a4f28419497f9722a3daafe3b4186f6b6457e090600090a35050565b600054610100900460ff166143d85760405162461bcd60e51b815260206004820152602b60248201527f496e697469616c697a61626c653a20636f6e7472616374206973206e6f74206960448201526a6e697469616c697a696e6760a81b6064820152608401610298565b6143e18261431b565b6115d68161402f565b60fb546001600160a01b031615801561440b57506001600160a01b03821615155b61448d5760405162461bcd60e51b815260206004820152604760248201527f5061757361626c652e5f696e697469616c697a655061757365723a205f696e6960448201527f7469616c697a6550617573657228292063616e206f6e6c792062652063616c6c6064820152666564206f6e636560c81b608482015260a401610298565b60fc81905560405181815233907fab40a374bc51de372200a8bc981af8c9ecdc08dfdaef0bb6e09f88f3c616ef3d9060200160405180910390a26115d68261398d565b6000602084516144e0919061550b565b156145675760405162461bcd60e51b815260206004820152604b60248201527f4d65726b6c652e70726f63657373496e636c7573696f6e50726f6f664b65636360448201527f616b3a2070726f6f66206c656e6774682073686f756c642062652061206d756c60648201526a3a34b836329037b310199960a91b608482015260a401610298565b8260205b855181116111795761457e60028561550b565b6000036145a2578160005280860151602052604060002091506002840493506145bb565b8086015160005281602052604060002091506002840493505b6145c66020826153fb565b905061456b565b60008080600080516020615a458339815191526003600080516020615a4583398151915286600080516020615a45833981519152888909090890506000614643827f0c19139cb84c680a6e14116da060561765e05aa45a1c72a34f082305b61f3f52600080516020615a458339815191526147d7565b91959194509092505050565b6000610100825111156146d85760405162461bcd60e51b8152602060048201526044602482018190527f4269746d61705574696c732e6f72646572656442797465734172726179546f42908201527f69746d61703a206f7264657265644279746573417272617920697320746f6f206064820152636c6f6e6760e01b608482015260a401610298565b81516000036146e957506000919050565b600080836000815181106146ff576146ff6154f5565b0160200151600160f89190911c81901b92505b84518110156147ce5784818151811061472d5761472d6154f5565b0160200151600160f89190911c1b91508282116147c25760405162461bcd60e51b815260206004820152604760248201527f4269746d61705574696c732e6f72646572656442797465734172726179546f4260448201527f69746d61703a206f72646572656442797465734172726179206973206e6f74206064820152661bdc99195c995960ca1b608482015260a401610298565b91811791600101614712565b50909392505050565b6000806147e2614900565b6147ea61491e565b602080825281810181905260408201819052606082018890526080820187905260a082018690528260c08360056107d05a03fa9250828061482757fe5b50826148755760405162461bcd60e51b815260206004820152601a60248201527f424e3235342e6578704d6f643a2063616c6c206661696c7572650000000000006044820152606401610298565b505195945050505050565b60405180606001604052806003906020820280368337509192915050565b60405180608001604052806004906020820280368337509192915050565b60405180604001604052806148cf61493c565b81526020016148dc61493c565b905290565b604051806101800160405280600c906020820280368337509192915050565b60405180602001604052806001906020820280368337509192915050565b6040518060c001604052806006906020820280368337509192915050565b60405180604001604052806002906020820280368337509192915050565b60208082526019908201527f5061757361626c653a20696e6465782069732070617573656400000000000000604082015260600190565b634e487b7160e01b600052604160045260246000fd5b604080519081016001600160401b03811182821017156149c9576149c9614991565b60405290565b60405161010081016001600160401b03811182821017156149c9576149c9614991565b604051601f8201601f191681016001600160401b0381118282101715614a1a57614a1a614991565b604052919050565b6000806001600160401b03841115614a3c57614a3c614991565b50601f8301601f1916602001614a51816149f2565b915050828152838383011115614a6657600080fd5b828260208301376000602084830101529392505050565b600082601f830112614a8e57600080fd5b614a9d83833560208501614a22565b9392505050565b6001600160a01b0381168114610b9457600080fd5b600080600080600080600080610100898b031215614ad657600080fd5b88359750602089013596506040890135955060608901356001600160601b031981168114614b0357600080fd5b94506080890135935060a08901356001600160401b03811115614b2557600080fd5b614b318b828c01614a7d565b93505060c0890135915060e0890135614b4981614aa4565b809150509295985092959890939650565b600060208284031215614b6c57600080fd5b813561416981614aa4565b600060208284031215614b8957600080fd5b5035919050565b60ff81168114610b9457600080fd5b600060208284031215614bb157600080fd5b813561416981614b90565b600060408284031215614bce57600080fd5b614bd66149a7565b823581526020928301359281019290925250919050565b600082601f830112614bfe57600080fd5b614c066149a7565b806040840185811115614c1857600080fd5b845b81811015614c32578035845260209384019301614c1a565b509095945050505050565b600060808284031215614c4f57600080fd5b614c576149a7565b9050614c638383614bed565b8152614c728360408401614bed565b602082015292915050565b6000806000806101208587031215614c9457600080fd5b84359350614ca58660208701614bbc565b9250614cb48660608701614c3d565b9150614cc38660e08701614bbc565b905092959194509250565b602080825282518282018190526000918401906040840190835b81811015614c325783516001600160a01b0316835260209384019390920191600101614ce8565b8015158114610b9457600080fd5b600060208284031215614d2f57600080fd5b813561416981614d0f565b803563ffffffff8116811461431657600080fd5b60006001600160401b03821115614d6757614d67614991565b5060051b60200190565b600082601f830112614d8257600080fd5b8135614d95614d9082614d4e565b6149f2565b8082825260208201915060208360051b860101925085831115614db757600080fd5b602085015b83811015614ddb57614dcd81614d3a565b835260209283019201614dbc565b5095945050505050565b600082601f830112614df657600080fd5b8135614e04614d9082614d4e565b8082825260208201915060208360061b860101925085831115614e2657600080fd5b602085015b83811015614ddb57614e3d8782614bbc565b8352602090920191604001614e2b565b600082601f830112614e5e57600080fd5b8135614e6c614d9082614d4e565b8082825260208201915060208360051b860101925085831115614e8e57600080fd5b602085015b83811015614ddb5780356001600160401b03811115614eb157600080fd5b614ec0886020838a0101614d71565b84525060209283019201614e93565b60006101808284031215614ee257600080fd5b614eea6149cf565b905081356001600160401b03811115614f0257600080fd5b614f0e84828501614d71565b82525060208201356001600160401b03811115614f2a57600080fd5b614f3684828501614de5565b60208301525060408201356001600160401b03811115614f5557600080fd5b614f6184828501614de5565b604083015250614f748360608401614c3d565b6060820152614f868360e08401614bbc565b60808201526101208201356001600160401b03811115614fa557600080fd5b614fb184828501614d71565b60a0830152506101408201356001600160401b03811115614fd157600080fd5b614fdd84828501614d71565b60c0830152506101608201356001600160401b03811115614ffd57600080fd5b61500984828501614e4d565b60e08301525092915050565b60008060006060848603121561502a57600080fd5b8335925061503a60208501614d3a565b915060408401356001600160401b0381111561505557600080fd5b61506186828701614ecf565b9150509250925092565b600081518084526020840193506020830160005b828110156150a65781516001600160601b031686526020958601959091019060010161507f565b5093949350505050565b60408152600083516040808401526150cb608084018261506b565b90506020850151603f198483030160608501526150e8828261506b565b925050508260208301529392505050565b60008083601f84011261510b57600080fd5b5081356001600160401b0381111561512257600080fd5b60208301915083602082850101111561513a57600080fd5b9250929050565b60008060006040848603121561515657600080fd5b83356001600160401b0381111561516c57600080fd5b615178868287016150f9565b909790965060209590950135949350505050565b6000806040838503121561519f57600080fd5b82356151aa81614aa4565b915060208301356001600160401b038111156151c557600080fd5b8301606081860312156151d757600080fd5b604051606081016001600160401b03811182821017156151f9576151f9614991565b60405281356001600160401b0381111561521257600080fd5b61521e87828501614a7d565b8252506020828101359082015260409182013591810191909152919491935090915050565b60006020828403121561525557600080fd5b81356001600160401b0381111561526b57600080fd5b8201601f8101841361527c57600080fd5b61528b84823560208401614a22565b949350505050565b6000806000606084860312156152a857600080fd5b83359250602084013561503a81614aa4565b600080600080606085870312156152d057600080fd5b8435935060208501356001600160401b038111156152ed57600080fd5b6152f9878288016150f9565b9598909750949560400135949350505050565b600080600080600060a0868803121561532457600080fd5b853561532f81614aa4565b9450602086013561533f81614aa4565b9350604086013561534f81614aa4565b9250606086013561535f81614aa4565b949793965091946080013592915050565b6000806020838503121561538357600080fd5b82356001600160401b0381111561539957600080fd5b8301601f810185136153aa57600080fd5b80356001600160401b038111156153c057600080fd5b8560208260051b84010111156153d557600080fd5b6020919091019590945092505050565b634e487b7160e01b600052601160045260246000fd5b8082018082111561416c5761416c6153e5565b91825260601b6001600160601b031916602082015260340190565b60006020828403121561543b57600080fd5b815161416981614aa4565b6020808252602a908201527f6d73672e73656e646572206973206e6f74207065726d697373696f6e6564206160408201526939903ab73830bab9b2b960b11b606082015260800190565b6000602082840312156154a257600080fd5b815161416981614d0f565b60208082526028908201527f6d73672e73656e646572206973206e6f74207065726d697373696f6e6564206160408201526739903830bab9b2b960c11b606082015260800190565b634e487b7160e01b600052603260045260246000fd5b60008261552857634e487b7160e01b600052601260045260246000fd5b500690565b8181038181111561416c5761416c6153e5565b60006020828403121561555257600080fd5b5051919050565b60006020828403121561556b57600080fd5b81516001600160c01b038116811461416957600080fd5b60006020828403121561559457600080fd5b815161416981614b90565b6001600160601b0381168114610b9457600080fd5b600060408284031280156155c757600080fd5b506155d06149a7565b82516155db81614aa4565b815260208301516155eb8161559f565b60208201529392505050565b600060018201615609576156096153e5565b5060010190565b60006020828403121561562257600080fd5b815167ffffffffffffffff198116811461416957600080fd5b60006020828403121561564d57600080fd5b81516141698161559f565b6001600160601b03828116828216039081111561416c5761416c6153e5565b63ffffffff60e01b8360e01b16815260006004820183516020850160005b828110156156b3578151845260209384019390910190600101615695565b50919695505050505050565b8183823760009101908152919050565b60208082526052908201527f536572766963654d616e61676572426173652e6f6e6c7952656769737472794360408201527f6f6f7264696e61746f723a2063616c6c6572206973206e6f742074686520726560608201527133b4b9ba393c9031b7b7b93234b730ba37b960711b608082015260a00190565b6000815180845260005b8181101561576d57602081850181015186830182015201615751565b506000602082860101526020601f19601f83011685010191505092915050565b60018060a01b03831681526040602082015260008251606060408401526157b760a0840182615747565b90506020840151606084015260408401516080840152809150509392505050565b602081526000614a9d6020830184615747565b6001600160601b03818116838216029081169081811461580d5761580d6153e5565b5092915050565b808202811582820484141761416c5761416c6153e5565b6001600160a01b038616815263ffffffff851660208201526080604082018190528101839052828460a0830137600060a08483010152600060a0601f19601f86011683010190508260608301529695505050505050565b60008235609e1983360301811261589857600080fd5b9190910192915050565b803561431681614aa4565b81835260208301925060008160005b848110156150a65781356158cf81614aa4565b6001600160a01b0316865260208201356158e88161559f565b6001600160601b0316602087015260409586019591909101906001016158bc565b6020808252810182905260006040600584901b830181019083018583609e1936839003015b87821015615a1657868503603f19018452823581811261594d57600080fd5b8901803536829003601e1901811261596457600080fd5b81016020810190356001600160401b0381111561598057600080fd5b8060061b360382131561599257600080fd5b60a088526159a460a0890182846158ad565b9150506159b3602083016158a2565b6001600160a01b03166020880152604082810135908801526159d760608301614d3a565b63ffffffff1660608801526159ee60808301614d3a565b63ffffffff81166080890152915095505060209384019392909201916001919091019061592e565b5092979650505050505050565b600061ffff821661ffff8103615a3b57615a3b6153e5565b6001019291505056fe30644e72e131a029b85045b68181585d97816a916871ca8d3c208c16d87cfd470ea46f246ccfc58f7a93aa09bc6245a6818e97b1a160d186afe78993a3b194a0424c535369676e6174757265436865636b65722e636865636b5369676e617475a26469706673582212208755cc8934ae88fa5027fb1b5c2e8633ac3a93597ddef7c24271a5bf2132c78664736f6c634300081c0033","linkReferences":{}},"methodIdentifiers":{"alignedAggregator()":"4a5bf632","avsDirectory()":"6b3aa72e","balanceOf(address)":"70a08231","batchersBalances(address)":"f474b520","batchesState(bytes32)":"b099627e","blsApkRegistry()":"5df45946","checkPublicInput(bytes,bytes32)":"95c6d604","checkSignatures(bytes32,uint32,(uint32[],(uint256,uint256)[],(uint256,uint256)[],(uint256[2],uint256[2]),(uint256,uint256),uint32[],uint32[],uint32[][]))":"4ae07c37","createAVSRewardsSubmission(((address,uint96)[],address,uint256,uint32,uint32)[])":"fce36c7d","createNewTask(bytes32,string,uint256)":"d66eaabd","delegation()":"df5cf723","depositToBatcher(address)":"4223d551","deregisterOperatorFromAVS(address)":"a364f4da","disableVerifier(uint8)":"fd4c3b7c","disabledVerifiers()":"ea5ca34b","enableVerifier(uint8)":"18daeeaf","getOperatorRestakedStrategies(address)":"33cfb7b7","getRestakeableStrategies()":"e481af9d","initialize(address,address,address,address,uint256)":"f7013ef6","isVerifierDisabled(uint8)":"137122b5","owner()":"8da5cb5b","pause(uint256)":"136439dd","pauseAll()":"595c6a67","paused()":"5c975abb","paused(uint8)":"5ac86ab7","pauserRegistry()":"886f1195","registerOperatorToAVS(address,(bytes,bytes32,uint256))":"9926ee7d","registryCoordinator()":"6d14a987","renounceOwnership()":"715018a6","respondToTaskV2(bytes32,address,(uint32[],(uint256,uint256)[],(uint256,uint256)[],(uint256[2],uint256[2]),(uint256,uint256),uint32[],uint32[],uint32[][]))":"ab21739a","rewardsInitiator()":"fc299dee","setAggregator(address)":"f9120af6","setDisabledVerifiers(uint256)":"b753645e","setPauserRegistry(address)":"10d67a2f","setRewardsInitiator(address)":"3bc28c8c","setStaleStakesForbidden(bool)":"416c7e5e","stakeRegistry()":"68304835","staleStakesForbidden()":"b98d0908","transferOwnership(address)":"f2fde38b","trySignatureAndApkVerification(bytes32,(uint256,uint256),(uint256[2],uint256[2]),(uint256,uint256))":"171f1d5b","unpause(uint256)":"fabc1cbc","updateAVSMetadataURI(string)":"a98fb355","verifyBatchInclusion(bytes32,bytes32,bytes32,bytes20,bytes32,bytes,uint256,address)":"06045a91","withdraw(uint256)":"2e1a7d4d"},"id":115}