{"abi":[{"type":"constructor","inputs":[],"stateMutability":"nonpayable"},{"type":"function","name":"VERIFIER_MOCK_ADDRESS","inputs":[],"outputs":[{"name":"","type":"address","internalType":"address"}],"stateMutability":"view"},{"type":"function","name":"aggregatedProofs","inputs":[{"name":"","type":"bytes32","internalType":"bytes32"}],"outputs":[{"name":"","type":"bool","internalType":"bool"}],"stateMutability":"view"},{"type":"function","name":"alignedAggregatorAddress","inputs":[],"outputs":[{"name":"","type":"address","internalType":"address"}],"stateMutability":"view"},{"type":"function","name":"initialize","inputs":[{"name":"newOwner","type":"address","internalType":"address"},{"name":"_alignedAggregatorAddress","type":"address","internalType":"address"},{"name":"_sp1VerifierAddress","type":"address","internalType":"address"}],"outputs":[],"stateMutability":"nonpayable"},{"type":"function","name":"owner","inputs":[],"outputs":[{"name":"","type":"address","internalType":"address"}],"stateMutability":"view"},{"type":"function","name":"proxiableUUID","inputs":[],"outputs":[{"name":"","type":"bytes32","internalType":"bytes32"}],"stateMutability":"view"},{"type":"function","name":"renounceOwnership","inputs":[],"outputs":[],"stateMutability":"nonpayable"},{"type":"function","name":"sp1VerifierAddress","inputs":[],"outputs":[{"name":"","type":"address","internalType":"address"}],"stateMutability":"view"},{"type":"function","name":"transferOwnership","inputs":[{"name":"newOwner","type":"address","internalType":"address"}],"outputs":[],"stateMutability":"nonpayable"},{"type":"function","name":"upgradeTo","inputs":[{"name":"newImplementation","type":"address","internalType":"address"}],"outputs":[],"stateMutability":"nonpayable"},{"type":"function","name":"upgradeToAndCall","inputs":[{"name":"newImplementation","type":"address","internalType":"address"},{"name":"data","type":"bytes","internalType":"bytes"}],"outputs":[],"stateMutability":"payable"},{"type":"function","name":"verify","inputs":[{"name":"blobVersionedHash","type":"bytes32","internalType":"bytes32"},{"name":"sp1ProgramVKey","type":"bytes32","internalType":"bytes32"},{"name":"sp1PublicValues","type":"bytes","internalType":"bytes"},{"name":"sp1ProofBytes","type":"bytes","internalType":"bytes"}],"outputs":[],"stateMutability":"nonpayable"},{"type":"event","name":"AdminChanged","inputs":[{"name":"previousAdmin","type":"address","indexed":false,"internalType":"address"},{"name":"newAdmin","type":"address","indexed":false,"internalType":"address"}],"anonymous":false},{"type":"event","name":"AggregatedProofVerified","inputs":[{"name":"merkleRoot","type":"bytes32","indexed":true,"internalType":"bytes32"},{"name":"blobVersionedHash","type":"bytes32","indexed":false,"internalType":"bytes32"}],"anonymous":false},{"type":"event","name":"BeaconUpgraded","inputs":[{"name":"beacon","type":"address","indexed":true,"internalType":"address"}],"anonymous":false},{"type":"event","name":"Initialized","inputs":[{"name":"version","type":"uint8","indexed":false,"internalType":"uint8"}],"anonymous":false},{"type":"event","name":"OwnershipTransferred","inputs":[{"name":"previousOwner","type":"address","indexed":true,"internalType":"address"},{"name":"newOwner","type":"address","indexed":true,"internalType":"address"}],"anonymous":false},{"type":"event","name":"Upgraded","inputs":[{"name":"implementation","type":"address","indexed":true,"internalType":"address"}],"anonymous":false},{"type":"error","name":"OnlyAlignedAggregator","inputs":[{"name":"sender","type":"address","internalType":"address"}]}],"bytecode":{"object":"0x60a06040523060805234801561001457600080fd5b5061001d610022565b6100e2565b600054610100900460ff161561008e5760405162461bcd60e51b815260206004820152602760248201527f496e697469616c697a61626c653a20636f6e747261637420697320696e697469604482015266616c697a696e6760c81b606482015260840160405180910390fd5b60005460ff90811610156100e0576000805460ff191660ff9081179091556040519081527f7f26b83ff96e1f2b6a682f133852f6798a09c465da95921460cefb38474024989060200160405180910390a15b565b608051611116610119600039600081816102530152818161029c0152818161033b0152818161037b015261040e01526111166000f3fe6080604052600436106100a75760003560e01c8063715018a611610064578063715018a6146101a157806383501b21146101b65780638da5cb5b146101cb578063c0c53b8b146101e9578063f2fde38b14610209578063fc2b42711461022957600080fd5b806327d3bc9a146100ac578063294e3ccb146100f15780633659cfe6146101295780634c46688c1461014b5780634f1ef2861461016b57806352d1902d1461017e575b600080fd5b3480156100b857600080fd5b506100dc6100c7366004610c91565b60c96020526000908152604090205460ff1681565b60405190151581526020015b60405180910390f35b3480156100fd57600080fd5b5060ca54610111906001600160a01b031681565b6040516001600160a01b0390911681526020016100e8565b34801561013557600080fd5b50610149610144366004610cc6565b610249565b005b34801561015757600080fd5b5060cb54610111906001600160a01b031681565b610149610179366004610cf7565b610331565b34801561018a57600080fd5b50610193610401565b6040519081526020016100e8565b3480156101ad57600080fd5b506101496104b4565b3480156101c257600080fd5b5061011160ff81565b3480156101d757600080fd5b506033546001600160a01b0316610111565b3480156101f557600080fd5b50610149610204366004610db9565b6104c8565b34801561021557600080fd5b50610149610224366004610cc6565b61061d565b34801561023557600080fd5b50610149610244366004610e45565b610693565b6001600160a01b037f000000000000000000000000000000000000000000000000000000000000000016300361029a5760405162461bcd60e51b815260040161029190610ec8565b60405180910390fd5b7f00000000000000000000000000000000000000000000000000000000000000006001600160a01b03166102e360008051602061109a833981519152546001600160a01b031690565b6001600160a01b0316146103095760405162461bcd60e51b815260040161029190610f14565b610312816107b2565b6040805160008082526020820190925261032e918391906107ba565b50565b6001600160a01b037f00000000000000000000000000000000000000000000000000000000000000001630036103795760405162461bcd60e51b815260040161029190610ec8565b7f00000000000000000000000000000000000000000000000000000000000000006001600160a01b03166103c260008051602061109a833981519152546001600160a01b031690565b6001600160a01b0316146103e85760405162461bcd60e51b815260040161029190610f14565b6103f1826107b2565b6103fd828260016107ba565b5050565b6000306001600160a01b037f000000000000000000000000000000000000000000000000000000000000000016146104a15760405162461bcd60e51b815260206004820152603860248201527f555550535570677261646561626c653a206d757374206e6f742062652063616c60448201527f6c6564207468726f7567682064656c656761746563616c6c00000000000000006064820152608401610291565b5060008051602061109a83398151915290565b6104bc61092a565b6104c66000610984565b565b600054610100900460ff16158080156104e85750600054600160ff909116105b806105025750303b158015610502575060005460ff166001145b6105655760405162461bcd60e51b815260206004820152602e60248201527f496e697469616c697a61626c653a20636f6e747261637420697320616c72656160448201526d191e481a5b9a5d1a585b1a5e995960921b6064820152608401610291565b6000805460ff191660011790558015610588576000805461ff0019166101001790555b6105906109d6565b610598610a05565b6105a184610984565b60cb80546001600160a01b038086166001600160a01b03199283161790925560ca8054928516929091169190911790558015610617576000805461ff0019169055604051600181527f7f26b83ff96e1f2b6a682f133852f6798a09c465da95921460cefb38474024989060200160405180910390a15b50505050565b61062561092a565b6001600160a01b03811661068a5760405162461bcd60e51b815260206004820152602660248201527f4f776e61626c653a206e6577206f776e657220697320746865207a65726f206160448201526564647265737360d01b6064820152608401610291565b61032e81610984565b60cb546001600160a01b031633146106c05760405163921f325560e01b8152336004820152602401610291565b60006106ce84860186610c91565b90506106e660ca546001600160a01b031660ff141590565b156107545760ca5460405163020a49e360e51b81526001600160a01b03909116906341493c60906107239089908990899089908990600401610f89565b60006040518083038186803b15801561073b57600080fd5b505afa15801561074f573d6000803e3d6000fd5b505050505b600081815260c9602052604090819020805460ff191660011790555181907ffe3e9e971000ab9c80c7e06aba2933aae5419d0e44693e3046913e9e58053f62906107a1908a815260200190565b60405180910390a250505050505050565b61032e61092a565b7f4910fdfa16fed3260ed0e7147f7cc6da11a60208b5b9406d12a635614ffd91435460ff16156107f2576107ed83610a2c565b505050565b826001600160a01b03166352d1902d6040518163ffffffff1660e01b8152600401602060405180830381865afa92505050801561084c575060408051601f3d908101601f1916820190925261084991810190610fc2565b60015b6108af5760405162461bcd60e51b815260206004820152602e60248201527f45524331393637557067726164653a206e657720696d706c656d656e7461746960448201526d6f6e206973206e6f74205555505360901b6064820152608401610291565b60008051602061109a833981519152811461091e5760405162461bcd60e51b815260206004820152602960248201527f45524331393637557067726164653a20756e737570706f727465642070726f786044820152681a58589b195555525160ba1b6064820152608401610291565b506107ed838383610ac8565b6033546001600160a01b031633146104c65760405162461bcd60e51b815260206004820181905260248201527f4f776e61626c653a2063616c6c6572206973206e6f7420746865206f776e65726044820152606401610291565b603380546001600160a01b038381166001600160a01b0319831681179093556040519116919082907f8be0079c531659141344cd1fd0a4f28419497f9722a3daafe3b4186f6b6457e090600090a35050565b600054610100900460ff166109fd5760405162461bcd60e51b815260040161029190610fdb565b6104c6610aed565b600054610100900460ff166104c65760405162461bcd60e51b815260040161029190610fdb565b6001600160a01b0381163b610a995760405162461bcd60e51b815260206004820152602d60248201527f455243313936373a206e657720696d706c656d656e746174696f6e206973206e60448201526c1bdd08184818dbdb9d1c9858dd609a1b6064820152608401610291565b60008051602061109a83398151915280546001600160a01b0319166001600160a01b0392909216919091179055565b610ad183610b1d565b600082511180610ade5750805b156107ed576106178383610b5d565b600054610100900460ff16610b145760405162461bcd60e51b815260040161029190610fdb565b6104c633610984565b610b2681610a2c565b6040516001600160a01b038216907fbc7cd75a20ee27fd9adebab32041f755214dbc6bffa90cc0225b39da2e5c2d3b90600090a250565b60606001600160a01b0383163b610bc55760405162461bcd60e51b815260206004820152602660248201527f416464726573733a2064656c65676174652063616c6c20746f206e6f6e2d636f6044820152651b9d1c9858dd60d21b6064820152608401610291565b600080846001600160a01b031684604051610be0919061104a565b600060405180830381855af49150503d8060008114610c1b576040519150601f19603f3d011682016040523d82523d6000602084013e610c20565b606091505b5091509150610c4882826040518060600160405280602781526020016110ba60279139610c51565b95945050505050565b60608315610c60575081610c8a565b825115610c705782518084602001fd5b8160405162461bcd60e51b81526004016102919190611066565b9392505050565b600060208284031215610ca357600080fd5b5035919050565b80356001600160a01b0381168114610cc157600080fd5b919050565b600060208284031215610cd857600080fd5b610c8a82610caa565b634e487b7160e01b600052604160045260246000fd5b60008060408385031215610d0a57600080fd5b610d1383610caa565b9150602083013567ffffffffffffffff80821115610d3057600080fd5b818501915085601f830112610d4457600080fd5b813581811115610d5657610d56610ce1565b604051601f8201601f19908116603f01168101908382118183101715610d7e57610d7e610ce1565b81604052828152886020848701011115610d9757600080fd5b8260208601602083013760006020848301015280955050505050509250929050565b600080600060608486031215610dce57600080fd5b610dd784610caa565b9250610de560208501610caa565b9150610df360408501610caa565b90509250925092565b60008083601f840112610e0e57600080fd5b50813567ffffffffffffffff811115610e2657600080fd5b602083019150836020828501011115610e3e57600080fd5b9250929050565b60008060008060008060808789031215610e5e57600080fd5b8635955060208701359450604087013567ffffffffffffffff80821115610e8457600080fd5b610e908a838b01610dfc565b90965094506060890135915080821115610ea957600080fd5b50610eb689828a01610dfc565b979a9699509497509295939492505050565b6020808252602c908201527f46756e6374696f6e206d7573742062652063616c6c6564207468726f7567682060408201526b19195b1959d85d1958d85b1b60a21b606082015260800190565b6020808252602c908201527f46756e6374696f6e206d7573742062652063616c6c6564207468726f7567682060408201526b6163746976652070726f787960a01b606082015260800190565b81835281816020850137506000828201602090810191909152601f909101601f19169091010190565b858152606060208201526000610fa3606083018688610f60565b8281036040840152610fb6818587610f60565b98975050505050505050565b600060208284031215610fd457600080fd5b5051919050565b6020808252602b908201527f496e697469616c697a61626c653a20636f6e7472616374206973206e6f74206960408201526a6e697469616c697a696e6760a81b606082015260800190565b60005b83811015611041578181015183820152602001611029565b50506000910152565b6000825161105c818460208701611026565b9190910192915050565b6020815260008251806020840152611085816040850160208701611026565b601f01601f1916919091016040019291505056fe360894a13ba1a3210667c828492db98dca3e2076cc3735a920a3ca505d382bbc416464726573733a206c6f772d6c6576656c2064656c65676174652063616c6c206661696c6564a2646970667358221220ef3ac35a93e0bc422c32ddc5626edbb3121458d2f45c80dcb960589ffea6d6b764736f6c63430008180033","linkReferences":{}},"methodIdentifiers":{"VERIFIER_MOCK_ADDRESS()":"83501b21","aggregatedProofs(bytes32)":"27d3bc9a","alignedAggregatorAddress()":"4c46688c","initialize(address,address,address)":"c0c53b8b","owner()":"8da5cb5b","proxiableUUID()":"52d1902d","renounceOwnership()":"715018a6","sp1VerifierAddress()":"294e3ccb","transferOwnership(address)":"f2fde38b","upgradeTo(address)":"3659cfe6","upgradeToAndCall(address,bytes)":"4f1ef286","verify(bytes32,bytes32,bytes,bytes)":"fc2b4271"},"id":10}