{"abi":[{"type":"constructor","inputs":[],"stateMutability":"nonpayable"},{"type":"function","name":"VERIFIER_MOCK_ADDRESS","inputs":[],"outputs":[{"name":"","type":"address","internalType":"address"}],"stateMutability":"view"},{"type":"function","name":"aggregatedProofs","inputs":[{"name":"","type":"bytes32","internalType":"bytes32"}],"outputs":[{"name":"","type":"bool","internalType":"bool"}],"stateMutability":"view"},{"type":"function","name":"alignedAggregatorAddress","inputs":[],"outputs":[{"name":"","type":"address","internalType":"address"}],"stateMutability":"view"},{"type":"function","name":"initialize","inputs":[{"name":"newOwner","type":"address","internalType":"address"},{"name":"_alignedAggregatorAddress","type":"address","internalType":"address"},{"name":"_sp1VerifierAddress","type":"address","internalType":"address"}],"outputs":[],"stateMutability":"nonpayable"},{"type":"function","name":"owner","inputs":[],"outputs":[{"name":"","type":"address","internalType":"address"}],"stateMutability":"view"},{"type":"function","name":"proxiableUUID","inputs":[],"outputs":[{"name":"","type":"bytes32","internalType":"bytes32"}],"stateMutability":"view"},{"type":"function","name":"renounceOwnership","inputs":[],"outputs":[],"stateMutability":"nonpayable"},{"type":"function","name":"risc0VerifierAddress","inputs":[],"outputs":[{"name":"","type":"address","internalType":"address"}],"stateMutability":"view"},{"type":"function","name":"sp1VerifierAddress","inputs":[],"outputs":[{"name":"","type":"address","internalType":"address"}],"stateMutability":"view"},{"type":"function","name":"transferOwnership","inputs":[{"name":"newOwner","type":"address","internalType":"address"}],"outputs":[],"stateMutability":"nonpayable"},{"type":"function","name":"upgradeTo","inputs":[{"name":"newImplementation","type":"address","internalType":"address"}],"outputs":[],"stateMutability":"nonpayable"},{"type":"function","name":"upgradeToAndCall","inputs":[{"name":"newImplementation","type":"address","internalType":"address"},{"name":"data","type":"bytes","internalType":"bytes"}],"outputs":[],"stateMutability":"payable"},{"type":"function","name":"verifyRisc0","inputs":[{"name":"blobVersionedHash","type":"bytes32","internalType":"bytes32"},{"name":"risc0ReceiptSeal","type":"bytes","internalType":"bytes"},{"name":"risc0ImageId","type":"bytes32","internalType":"bytes32"},{"name":"risc0JournalBytes","type":"bytes","internalType":"bytes"}],"outputs":[],"stateMutability":"nonpayable"},{"type":"function","name":"verifySP1","inputs":[{"name":"blobVersionedHash","type":"bytes32","internalType":"bytes32"},{"name":"sp1ProgramVKey","type":"bytes32","internalType":"bytes32"},{"name":"sp1PublicValues","type":"bytes","internalType":"bytes"},{"name":"sp1ProofBytes","type":"bytes","internalType":"bytes"}],"outputs":[],"stateMutability":"nonpayable"},{"type":"event","name":"AdminChanged","inputs":[{"name":"previousAdmin","type":"address","indexed":false,"internalType":"address"},{"name":"newAdmin","type":"address","indexed":false,"internalType":"address"}],"anonymous":false},{"type":"event","name":"AggregatedProofVerified","inputs":[{"name":"merkleRoot","type":"bytes32","indexed":true,"internalType":"bytes32"},{"name":"blobVersionedHash","type":"bytes32","indexed":false,"internalType":"bytes32"}],"anonymous":false},{"type":"event","name":"BeaconUpgraded","inputs":[{"name":"beacon","type":"address","indexed":true,"internalType":"address"}],"anonymous":false},{"type":"event","name":"Initialized","inputs":[{"name":"version","type":"uint8","indexed":false,"internalType":"uint8"}],"anonymous":false},{"type":"event","name":"OwnershipTransferred","inputs":[{"name":"previousOwner","type":"address","indexed":true,"internalType":"address"},{"name":"newOwner","type":"address","indexed":true,"internalType":"address"}],"anonymous":false},{"type":"event","name":"Upgraded","inputs":[{"name":"implementation","type":"address","indexed":true,"internalType":"address"}],"anonymous":false},{"type":"error","name":"OnlyAlignedAggregator","inputs":[{"name":"sender","type":"address","internalType":"address"}]}],"bytecode":{"object":"0x60a06040523060805234801561001457600080fd5b5061001d610022565b6100e2565b600054610100900460ff161561008e5760405162461bcd60e51b815260206004820152602760248201527f496e697469616c697a61626c653a20636f6e747261637420697320696e697469604482015266616c697a696e6760c81b606482015260840160405180910390fd5b60005460ff90811610156100e0576000805460ff191660ff9081179091556040519081527f7f26b83ff96e1f2b6a682f133852f6798a09c465da95921460cefb38474024989060200160405180910390a15b565b60805161139761011960003960008181610441015281816104810152818161062d0152818161066d015261070001526113976000f3fe6080604052600436106100dd5760003560e01c806352d1902d1161007f57806383501b211161005957806383501b211461024c5780638da5cb5b14610261578063c0c53b8b1461027f578063f2fde38b1461029f57600080fd5b806352d1902d146101f4578063616af4f714610217578063715018a61461023757600080fd5b80633659cfe6116100bb5780633659cfe61461018157806339c94cbf146101a15780634c46688c146101c15780634f1ef286146101e157600080fd5b8063015f8668146100e257806327d3bc9a14610104578063294e3ccb14610149575b600080fd5b3480156100ee57600080fd5b506101026100fd366004610ead565b6102bf565b005b34801561011057600080fd5b5061013461011f366004610f35565b60c96020526000908152604090205460ff1681565b60405190151581526020015b60405180910390f35b34801561015557600080fd5b5060ca54610169906001600160a01b031681565b6040516001600160a01b039091168152602001610140565b34801561018d57600080fd5b5061010261019c366004610f6a565b610437565b3480156101ad57600080fd5b506101026101bc366004610f85565b610516565b3480156101cd57600080fd5b5060cc54610169906001600160a01b031681565b6101026101ef366004611005565b610623565b34801561020057600080fd5b506102096106f3565b604051908152602001610140565b34801561022357600080fd5b5060cb54610169906001600160a01b031681565b34801561024357600080fd5b506101026107a6565b34801561025857600080fd5b5061016960ff81565b34801561026d57600080fd5b506033546001600160a01b0316610169565b34801561028b57600080fd5b5061010261029a3660046110cf565b6107ba565b3480156102ab57600080fd5b506101026102ba366004610f6a565b61090f565b60cc546001600160a01b031633146102f15760405163921f325560e01b81523360048201526024015b60405180910390fd5b60006102ff82840184610f35565b905061031760cb546001600160a01b031660ff141590565b156103d957600060028484604051610330929190611112565b602060405180830381855afa15801561034d573d6000803e3d6000fd5b5050506040513d601f19601f820116820180604052508101906103709190611122565b60cb5460405163ab750e7560e01b81529192506001600160a01b03169063ab750e75906103a7908a908a908a908790600401611164565b60006040518083038186803b1580156103bf57600080fd5b505afa1580156103d3573d6000803e3d6000fd5b50505050505b600081815260c9602052604090819020805460ff191660011790555181907ffe3e9e971000ab9c80c7e06aba2933aae5419d0e44693e3046913e9e58053f6290610426908a815260200190565b60405180910390a250505050505050565b6001600160a01b037f000000000000000000000000000000000000000000000000000000000000000016300361047f5760405162461bcd60e51b81526004016102e89061118b565b7f00000000000000000000000000000000000000000000000000000000000000006001600160a01b03166104c860008051602061131b833981519152546001600160a01b031690565b6001600160a01b0316146104ee5760405162461bcd60e51b81526004016102e8906111d7565b6104f781610985565b604080516000808252602082019092526105139183919061098d565b50565b60cc546001600160a01b031633146105435760405163921f325560e01b81523360048201526024016102e8565b600061055184860186610f35565b905061056960ca546001600160a01b031660ff141590565b156103d95760ca5460405163020a49e360e51b81526001600160a01b03909116906341493c60906105a69089908990899089908990600401611223565b60006040518083038186803b1580156105be57600080fd5b505afa1580156105d2573d6000803e3d6000fd5b50505050600081815260c9602052604090819020805460ff191660011790555181907ffe3e9e971000ab9c80c7e06aba2933aae5419d0e44693e3046913e9e58053f6290610426908a815260200190565b6001600160a01b037f000000000000000000000000000000000000000000000000000000000000000016300361066b5760405162461bcd60e51b81526004016102e89061118b565b7f00000000000000000000000000000000000000000000000000000000000000006001600160a01b03166106b460008051602061131b833981519152546001600160a01b031690565b6001600160a01b0316146106da5760405162461bcd60e51b81526004016102e8906111d7565b6106e382610985565b6106ef8282600161098d565b5050565b6000306001600160a01b037f000000000000000000000000000000000000000000000000000000000000000016146107935760405162461bcd60e51b815260206004820152603860248201527f555550535570677261646561626c653a206d757374206e6f742062652063616c60448201527f6c6564207468726f7567682064656c656761746563616c6c000000000000000060648201526084016102e8565b5060008051602061131b83398151915290565b6107ae610afd565b6107b86000610b57565b565b600054610100900460ff16158080156107da5750600054600160ff909116105b806107f45750303b1580156107f4575060005460ff166001145b6108575760405162461bcd60e51b815260206004820152602e60248201527f496e697469616c697a61626c653a20636f6e747261637420697320616c72656160448201526d191e481a5b9a5d1a585b1a5e995960921b60648201526084016102e8565b6000805460ff19166001179055801561087a576000805461ff0019166101001790555b610882610ba9565b61088a610bd8565b61089384610b57565b60cc80546001600160a01b038086166001600160a01b03199283161790925560ca8054928516929091169190911790558015610909576000805461ff0019169055604051600181527f7f26b83ff96e1f2b6a682f133852f6798a09c465da95921460cefb38474024989060200160405180910390a15b50505050565b610917610afd565b6001600160a01b03811661097c5760405162461bcd60e51b815260206004820152602660248201527f4f776e61626c653a206e6577206f776e657220697320746865207a65726f206160448201526564647265737360d01b60648201526084016102e8565b61051381610b57565b610513610afd565b7f4910fdfa16fed3260ed0e7147f7cc6da11a60208b5b9406d12a635614ffd91435460ff16156109c5576109c083610bff565b505050565b826001600160a01b03166352d1902d6040518163ffffffff1660e01b8152600401602060405180830381865afa925050508015610a1f575060408051601f3d908101601f19168201909252610a1c91810190611122565b60015b610a825760405162461bcd60e51b815260206004820152602e60248201527f45524331393637557067726164653a206e657720696d706c656d656e7461746960448201526d6f6e206973206e6f74205555505360901b60648201526084016102e8565b60008051602061131b8339815191528114610af15760405162461bcd60e51b815260206004820152602960248201527f45524331393637557067726164653a20756e737570706f727465642070726f786044820152681a58589b195555525160ba1b60648201526084016102e8565b506109c0838383610c9b565b6033546001600160a01b031633146107b85760405162461bcd60e51b815260206004820181905260248201527f4f776e61626c653a2063616c6c6572206973206e6f7420746865206f776e657260448201526064016102e8565b603380546001600160a01b038381166001600160a01b0319831681179093556040519116919082907f8be0079c531659141344cd1fd0a4f28419497f9722a3daafe3b4186f6b6457e090600090a35050565b600054610100900460ff16610bd05760405162461bcd60e51b81526004016102e89061125c565b6107b8610cc0565b600054610100900460ff166107b85760405162461bcd60e51b81526004016102e89061125c565b6001600160a01b0381163b610c6c5760405162461bcd60e51b815260206004820152602d60248201527f455243313936373a206e657720696d706c656d656e746174696f6e206973206e60448201526c1bdd08184818dbdb9d1c9858dd609a1b60648201526084016102e8565b60008051602061131b83398151915280546001600160a01b0319166001600160a01b0392909216919091179055565b610ca483610cf0565b600082511180610cb15750805b156109c0576109098383610d30565b600054610100900460ff16610ce75760405162461bcd60e51b81526004016102e89061125c565b6107b833610b57565b610cf981610bff565b6040516001600160a01b038216907fbc7cd75a20ee27fd9adebab32041f755214dbc6bffa90cc0225b39da2e5c2d3b90600090a250565b60606001600160a01b0383163b610d985760405162461bcd60e51b815260206004820152602660248201527f416464726573733a2064656c65676174652063616c6c20746f206e6f6e2d636f6044820152651b9d1c9858dd60d21b60648201526084016102e8565b600080846001600160a01b031684604051610db391906112cb565b600060405180830381855af49150503d8060008114610dee576040519150601f19603f3d011682016040523d82523d6000602084013e610df3565b606091505b5091509150610e1b828260405180606001604052806027815260200161133b60279139610e24565b95945050505050565b60608315610e33575081610e5d565b825115610e435782518084602001fd5b8160405162461bcd60e51b81526004016102e891906112e7565b9392505050565b60008083601f840112610e7657600080fd5b50813567ffffffffffffffff811115610e8e57600080fd5b602083019150836020828501011115610ea657600080fd5b9250929050565b60008060008060008060808789031215610ec657600080fd5b86359550602087013567ffffffffffffffff811115610ee457600080fd5b610ef089828a01610e64565b90965094505060408701359250606087013567ffffffffffffffff811115610f1757600080fd5b610f2389828a01610e64565b979a9699509497509295939492505050565b600060208284031215610f4757600080fd5b5035919050565b80356001600160a01b0381168114610f6557600080fd5b919050565b600060208284031215610f7c57600080fd5b610e5d82610f4e565b60008060008060008060808789031215610f9e57600080fd5b8635955060208701359450604087013567ffffffffffffffff811115610fc357600080fd5b610fcf89828a01610e64565b909550935050606087013567ffffffffffffffff811115610f1757600080fd5b634e487b7160e01b600052604160045260246000fd5b6000806040838503121561101857600080fd5b61102183610f4e565b9150602083013567ffffffffffffffff81111561103d57600080fd5b8301601f8101851361104e57600080fd5b803567ffffffffffffffff81111561106857611068610fef565b604051601f8201601f19908116603f0116810167ffffffffffffffff8111828210171561109757611097610fef565b6040528181528282016020018710156110af57600080fd5b816020840160208301376000602083830101528093505050509250929050565b6000806000606084860312156110e457600080fd5b6110ed84610f4e565b92506110fb60208501610f4e565b915061110960408501610f4e565b90509250925092565b8183823760009101908152919050565b60006020828403121561113457600080fd5b5051919050565b81835281816020850137506000828201602090810191909152601f909101601f19169091010190565b60608152600061117860608301868861113b565b6020830194909452506040015292915050565b6020808252602c908201527f46756e6374696f6e206d7573742062652063616c6c6564207468726f7567682060408201526b19195b1959d85d1958d85b1b60a21b606082015260800190565b6020808252602c908201527f46756e6374696f6e206d7573742062652063616c6c6564207468726f7567682060408201526b6163746976652070726f787960a01b606082015260800190565b85815260606020820152600061123d60608301868861113b565b828103604084015261125081858761113b565b98975050505050505050565b6020808252602b908201527f496e697469616c697a61626c653a20636f6e7472616374206973206e6f74206960408201526a6e697469616c697a696e6760a81b606082015260800190565b60005b838110156112c25781810151838201526020016112aa565b50506000910152565b600082516112dd8184602087016112a7565b9190910192915050565b60208152600082518060208401526113068160408501602087016112a7565b601f01601f1916919091016040019291505056fe360894a13ba1a3210667c828492db98dca3e2076cc3735a920a3ca505d382bbc416464726573733a206c6f772d6c6576656c2064656c65676174652063616c6c206661696c6564a264697066735822122041474c2e6b19ccce64d88c33fea18811e5f111c2f95d481016b7c95cc116cfc264736f6c634300081c0033","linkReferences":{}},"methodIdentifiers":{"VERIFIER_MOCK_ADDRESS()":"83501b21","aggregatedProofs(bytes32)":"27d3bc9a","alignedAggregatorAddress()":"4c46688c","initialize(address,address,address)":"c0c53b8b","owner()":"8da5cb5b","proxiableUUID()":"52d1902d","renounceOwnership()":"715018a6","risc0VerifierAddress()":"616af4f7","sp1VerifierAddress()":"294e3ccb","transferOwnership(address)":"f2fde38b","upgradeTo(address)":"3659cfe6","upgradeToAndCall(address,bytes)":"4f1ef286","verifyRisc0(bytes32,bytes,bytes32,bytes)":"015f8668","verifySP1(bytes32,bytes32,bytes,bytes)":"39c94cbf"},"id":197}