{"abi":[{"type":"constructor","inputs":[],"stateMutability":"nonpayable"},{"type":"function","name":"VERIFIER_MOCK_ADDRESS","inputs":[],"outputs":[{"name":"","type":"address","internalType":"address"}],"stateMutability":"view"},{"type":"function","name":"aggregatedProofs","inputs":[{"name":"","type":"uint64","internalType":"uint64"}],"outputs":[{"name":"status","type":"uint8","internalType":"enum IAlignedProofAggregationService.AggregatedProofStatus"},{"name":"blobHash","type":"bytes32","internalType":"bytes32"},{"name":"merkleRoot","type":"bytes32","internalType":"bytes32"}],"stateMutability":"view"},{"type":"function","name":"alignedAggregatorAddress","inputs":[],"outputs":[{"name":"","type":"address","internalType":"address"}],"stateMutability":"view"},{"type":"function","name":"currentAggregatedProofNumber","inputs":[],"outputs":[{"name":"","type":"uint64","internalType":"uint64"}],"stateMutability":"view"},{"type":"function","name":"getAggregatedProof","inputs":[{"name":"proofNumber","type":"uint64","internalType":"uint64"}],"outputs":[{"name":"","type":"uint8","internalType":"uint8"},{"name":"blobHash","type":"bytes32","internalType":"bytes32"},{"name":"merkleRoot","type":"bytes32","internalType":"bytes32"}],"stateMutability":"view"},{"type":"function","name":"initialize","inputs":[{"name":"newOwner","type":"address","internalType":"address"},{"name":"_alignedAggregatorAddress","type":"address","internalType":"address"},{"name":"_sp1VerifierAddress","type":"address","internalType":"address"}],"outputs":[],"stateMutability":"nonpayable"},{"type":"function","name":"markCurrentAggregatedProofAsMissed","inputs":[],"outputs":[],"stateMutability":"nonpayable"},{"type":"function","name":"owner","inputs":[],"outputs":[{"name":"","type":"address","internalType":"address"}],"stateMutability":"view"},{"type":"function","name":"proxiableUUID","inputs":[],"outputs":[{"name":"","type":"bytes32","internalType":"bytes32"}],"stateMutability":"view"},{"type":"function","name":"renounceOwnership","inputs":[],"outputs":[],"stateMutability":"nonpayable"},{"type":"function","name":"sp1VerifierAddress","inputs":[],"outputs":[{"name":"","type":"address","internalType":"address"}],"stateMutability":"view"},{"type":"function","name":"transferOwnership","inputs":[{"name":"newOwner","type":"address","internalType":"address"}],"outputs":[],"stateMutability":"nonpayable"},{"type":"function","name":"upgradeTo","inputs":[{"name":"newImplementation","type":"address","internalType":"address"}],"outputs":[],"stateMutability":"nonpayable"},{"type":"function","name":"upgradeToAndCall","inputs":[{"name":"newImplementation","type":"address","internalType":"address"},{"name":"data","type":"bytes","internalType":"bytes"}],"outputs":[],"stateMutability":"payable"},{"type":"function","name":"verify","inputs":[{"name":"blobVersionedHash","type":"bytes32","internalType":"bytes32"},{"name":"sp1ProgramVKey","type":"bytes32","internalType":"bytes32"},{"name":"sp1PublicValues","type":"bytes","internalType":"bytes"},{"name":"sp1ProofBytes","type":"bytes","internalType":"bytes"}],"outputs":[],"stateMutability":"nonpayable"},{"type":"event","name":"AdminChanged","inputs":[{"name":"previousAdmin","type":"address","indexed":false,"internalType":"address"},{"name":"newAdmin","type":"address","indexed":false,"internalType":"address"}],"anonymous":false},{"type":"event","name":"BeaconUpgraded","inputs":[{"name":"beacon","type":"address","indexed":true,"internalType":"address"}],"anonymous":false},{"type":"event","name":"Initialized","inputs":[{"name":"version","type":"uint8","indexed":false,"internalType":"uint8"}],"anonymous":false},{"type":"event","name":"NewAggregatedProof","inputs":[{"name":"proofNumber","type":"uint64","indexed":true,"internalType":"uint64"},{"name":"status","type":"uint8","indexed":false,"internalType":"enum IAlignedProofAggregationService.AggregatedProofStatus"},{"name":"merkleRoot","type":"bytes32","indexed":false,"internalType":"bytes32"},{"name":"blobVersionedHash","type":"bytes32","indexed":false,"internalType":"bytes32"}],"anonymous":false},{"type":"event","name":"OwnershipTransferred","inputs":[{"name":"previousOwner","type":"address","indexed":true,"internalType":"address"},{"name":"newOwner","type":"address","indexed":true,"internalType":"address"}],"anonymous":false},{"type":"event","name":"Upgraded","inputs":[{"name":"implementation","type":"address","indexed":true,"internalType":"address"}],"anonymous":false},{"type":"error","name":"OnlyAlignedAggregator","inputs":[{"name":"sender","type":"address","internalType":"address"}]}],"bytecode":{"object":"0x60a06040523060805234801561001457600080fd5b5061001d610022565b6100e2565b600054610100900460ff161561008e5760405162461bcd60e51b815260206004820152602760248201527f496e697469616c697a61626c653a20636f6e747261637420697320696e697469604482015266616c697a696e6760c81b606482015260840160405180910390fd5b60005460ff90811610156100e0576000805460ff191660ff9081179091556040519081527f7f26b83ff96e1f2b6a682f133852f6798a09c465da95921460cefb38474024989060200160405180910390a15b565b60805161150e610119600039600081816103330152818161037c0152818161041b0152818161045b01526104ee015261150e6000f3fe6080604052600436106100e85760003560e01c806383501b211161008a578063b5825bdd11610059578063b5825bdd1461028a578063c0c53b8b146102c9578063f2fde38b146102e9578063fc2b42711461030957600080fd5b806383501b211461020a57806389909c4d1461021f5780638da5cb5b14610257578063ae1517df1461027557600080fd5b80634c46688c116100c65780634c46688c1461019f5780634f1ef286146101bf57806352d1902d146101d2578063715018a6146101f557600080fd5b80631853e99a146100ed578063294e3ccb146101455780633659cfe61461017d575b600080fd5b3480156100f957600080fd5b5061012d610108366004610fd5565b60ca6020526000908152604090208054600182015460029092015460ff909116919083565b60405161013c93929190611036565b60405180910390f35b34801561015157600080fd5b5060cb54610165906001600160a01b031681565b6040516001600160a01b03909116815260200161013c565b34801561018957600080fd5b5061019d610198366004611071565b610329565b005b3480156101ab57600080fd5b5060cc54610165906001600160a01b031681565b61019d6101cd3660046110a2565b610411565b3480156101de57600080fd5b506101e76104e1565b60405190815260200161013c565b34801561020157600080fd5b5061019d610594565b34801561021657600080fd5b5061016560ff81565b34801561022b57600080fd5b5060c95461023f906001600160401b031681565b6040516001600160401b03909116815260200161013c565b34801561026357600080fd5b506033546001600160a01b0316610165565b34801561028157600080fd5b5061019d6105a8565b34801561029657600080fd5b506102aa6102a5366004610fd5565b610687565b6040805160ff909416845260208401929092529082015260600161013c565b3480156102d557600080fd5b5061019d6102e4366004611169565b6106d0565b3480156102f557600080fd5b5061019d610304366004611071565b610825565b34801561031557600080fd5b5061019d6103243660046111f4565b61089b565b6001600160a01b037f000000000000000000000000000000000000000000000000000000000000000016300361037a5760405162461bcd60e51b81526004016103719061127a565b60405180910390fd5b7f00000000000000000000000000000000000000000000000000000000000000006001600160a01b03166103c3600080516020611492833981519152546001600160a01b031690565b6001600160a01b0316146103e95760405162461bcd60e51b8152600401610371906112c6565b6103f281610a3a565b6040805160008082526020820190925261040e91839190610a42565b50565b6001600160a01b037f00000000000000000000000000000000000000000000000000000000000000001630036104595760405162461bcd60e51b81526004016103719061127a565b7f00000000000000000000000000000000000000000000000000000000000000006001600160a01b03166104a2600080516020611492833981519152546001600160a01b031690565b6001600160a01b0316146104c85760405162461bcd60e51b8152600401610371906112c6565b6104d182610a3a565b6104dd82826001610a42565b5050565b6000306001600160a01b037f000000000000000000000000000000000000000000000000000000000000000016146105815760405162461bcd60e51b815260206004820152603860248201527f555550535570677261646561626c653a206d757374206e6f742062652063616c60448201527f6c6564207468726f7567682064656c656761746563616c6c00000000000000006064820152608401610371565b5060008051602061149283398151915290565b61059c610bb2565b6105a66000610c0c565b565b60cc546001600160a01b031633146105d55760405163921f325560e01b8152336004820152602401610371565b60c980546001600160401b03908116600090815260ca6020526040808220805460ff19166002908117825594549151909491909316927f50830ba16d4a336ba668f1b236b66733def7d0033d3428770cfad6f2fa5e3e199261063992918190611036565b60405180910390a260c98054600191906000906106609084906001600160401b0316611312565b92506101000a8154816001600160401b0302191690836001600160401b0316021790555050565b6001600160401b038116600090815260ca6020526040812080548291829160ff1660028111156106b9576106b9610ffe565b600182015460029092015490969195509350915050565b600054610100900460ff16158080156106f05750600054600160ff909116105b8061070a5750303b15801561070a575060005460ff166001145b61076d5760405162461bcd60e51b815260206004820152602e60248201527f496e697469616c697a61626c653a20636f6e747261637420697320616c72656160448201526d191e481a5b9a5d1a585b1a5e995960921b6064820152608401610371565b6000805460ff191660011790558015610790576000805461ff0019166101001790555b610798610c5e565b6107a0610c8d565b6107a984610c0c565b60cc80546001600160a01b038086166001600160a01b03199283161790925560cb805492851692909116919091179055801561081f576000805461ff0019169055604051600181527f7f26b83ff96e1f2b6a682f133852f6798a09c465da95921460cefb38474024989060200160405180910390a15b50505050565b61082d610bb2565b6001600160a01b0381166108925760405162461bcd60e51b815260206004820152602660248201527f4f776e61626c653a206e6577206f776e657220697320746865207a65726f206160448201526564647265737360d01b6064820152608401610371565b61040e81610c0c565b60cc546001600160a01b031633146108c85760405163921f325560e01b8152336004820152602401610371565b60cb546001600160a01b031660fe19016108fc5760006108ea8486018661133f565b90506108f68188610cb4565b50610a32565b60cb5460405163020a49e360e51b81526001600160a01b03909116906341493c60906109349088908890889088908890600401611381565b60006040518083038186803b15801561094c57600080fd5b505afa92505050801561095d575060015b610a165760c980546001600160401b03908116600090815260ca6020526040808220805460ff19166001908117825594549151909491909316927f50830ba16d4a336ba668f1b236b66733def7d0033d3428770cfad6f2fa5e3e19926109c592918190611036565b60405180910390a260c98054600191906000906109ec9084906001600160401b0316611312565b92506101000a8154816001600160401b0302191690836001600160401b0316021790555050610a32565b6000610a248486018661133f565b9050610a308188610cb4565b505b505050505050565b61040e610bb2565b7f4910fdfa16fed3260ed0e7147f7cc6da11a60208b5b9406d12a635614ffd91435460ff1615610a7a57610a7583610d6e565b505050565b826001600160a01b03166352d1902d6040518163ffffffff1660e01b8152600401602060405180830381865afa925050508015610ad4575060408051601f3d908101601f19168201909252610ad1918101906113ba565b60015b610b375760405162461bcd60e51b815260206004820152602e60248201527f45524331393637557067726164653a206e657720696d706c656d656e7461746960448201526d6f6e206973206e6f74205555505360901b6064820152608401610371565b6000805160206114928339815191528114610ba65760405162461bcd60e51b815260206004820152602960248201527f45524331393637557067726164653a20756e737570706f727465642070726f786044820152681a58589b195555525160ba1b6064820152608401610371565b50610a75838383610e0a565b6033546001600160a01b031633146105a65760405162461bcd60e51b815260206004820181905260248201527f4f776e61626c653a2063616c6c6572206973206e6f7420746865206f776e65726044820152606401610371565b603380546001600160a01b038381166001600160a01b0319831681179093556040519116919082907f8be0079c531659141344cd1fd0a4f28419497f9722a3daafe3b4186f6b6457e090600090a35050565b600054610100900460ff16610c855760405162461bcd60e51b8152600401610371906113d3565b6105a6610e2f565b600054610100900460ff166105a65760405162461bcd60e51b8152600401610371906113d3565b60c980546001600160401b03908116600090815260ca60205260408082206002810187905560018101869055805460ff19168155935490519216917f50830ba16d4a336ba668f1b236b66733def7d0033d3428770cfad6f2fa5e3e1991610d1e9187908790611036565b60405180910390a260c9805460019190600090610d459084906001600160401b0316611312565b92506101000a8154816001600160401b0302191690836001600160401b03160217905550505050565b6001600160a01b0381163b610ddb5760405162461bcd60e51b815260206004820152602d60248201527f455243313936373a206e657720696d706c656d656e746174696f6e206973206e60448201526c1bdd08184818dbdb9d1c9858dd609a1b6064820152608401610371565b60008051602061149283398151915280546001600160a01b0319166001600160a01b0392909216919091179055565b610e1383610e5f565b600082511180610e205750805b15610a755761081f8383610e9f565b600054610100900460ff16610e565760405162461bcd60e51b8152600401610371906113d3565b6105a633610c0c565b610e6881610d6e565b6040516001600160a01b038216907fbc7cd75a20ee27fd9adebab32041f755214dbc6bffa90cc0225b39da2e5c2d3b90600090a250565b60606001600160a01b0383163b610f075760405162461bcd60e51b815260206004820152602660248201527f416464726573733a2064656c65676174652063616c6c20746f206e6f6e2d636f6044820152651b9d1c9858dd60d21b6064820152608401610371565b600080846001600160a01b031684604051610f229190611442565b600060405180830381855af49150503d8060008114610f5d576040519150601f19603f3d011682016040523d82523d6000602084013e610f62565b606091505b5091509150610f8a82826040518060600160405280602781526020016114b260279139610f95565b925050505b92915050565b60608315610fa4575081610fce565b825115610fb45782518084602001fd5b8160405162461bcd60e51b8152600401610371919061145e565b9392505050565b600060208284031215610fe757600080fd5b81356001600160401b0381168114610fce57600080fd5b634e487b7160e01b600052602160045260246000fd5b6003811061103257634e487b7160e01b600052602160045260246000fd5b9052565b606081016110448286611014565b602082019390935260400152919050565b80356001600160a01b038116811461106c57600080fd5b919050565b60006020828403121561108357600080fd5b610fce82611055565b634e487b7160e01b600052604160045260246000fd5b600080604083850312156110b557600080fd5b6110be83611055565b915060208301356001600160401b038111156110d957600080fd5b8301601f810185136110ea57600080fd5b80356001600160401b038111156111035761110361108c565b604051601f8201601f19908116603f011681016001600160401b03811182821017156111315761113161108c565b60405281815282820160200187101561114957600080fd5b816020840160208301376000602083830101528093505050509250929050565b60008060006060848603121561117e57600080fd5b61118784611055565b925061119560208501611055565b91506111a360408501611055565b90509250925092565b60008083601f8401126111be57600080fd5b5081356001600160401b038111156111d557600080fd5b6020830191508360208285010111156111ed57600080fd5b9250929050565b6000806000806000806080878903121561120d57600080fd5b863595506020870135945060408701356001600160401b0381111561123157600080fd5b61123d89828a016111ac565b90955093505060608701356001600160401b0381111561125c57600080fd5b61126889828a016111ac565b979a9699509497509295939492505050565b6020808252602c908201527f46756e6374696f6e206d7573742062652063616c6c6564207468726f7567682060408201526b19195b1959d85d1958d85b1b60a21b606082015260800190565b6020808252602c908201527f46756e6374696f6e206d7573742062652063616c6c6564207468726f7567682060408201526b6163746976652070726f787960a01b606082015260800190565b6001600160401b038181168382160190811115610f8f57634e487b7160e01b600052601160045260246000fd5b60006020828403121561135157600080fd5b5035919050565b81835281816020850137506000828201602090810191909152601f909101601f19169091010190565b85815260606020820152600061139b606083018688611358565b82810360408401526113ae818587611358565b98975050505050505050565b6000602082840312156113cc57600080fd5b5051919050565b6020808252602b908201527f496e697469616c697a61626c653a20636f6e7472616374206973206e6f74206960408201526a6e697469616c697a696e6760a81b606082015260800190565b60005b83811015611439578181015183820152602001611421565b50506000910152565b6000825161145481846020870161141e565b9190910192915050565b602081526000825180602084015261147d81604085016020870161141e565b601f01601f1916919091016040019291505056fe360894a13ba1a3210667c828492db98dca3e2076cc3735a920a3ca505d382bbc416464726573733a206c6f772d6c6576656c2064656c65676174652063616c6c206661696c6564a264697066735822122075d6a636273c4a7083ed378dbd952bf02ebc24e1575532f01f2adafbc39362db64736f6c634300081c0033","linkReferences":{}},"methodIdentifiers":{"VERIFIER_MOCK_ADDRESS()":"83501b21","aggregatedProofs(uint64)":"1853e99a","alignedAggregatorAddress()":"4c46688c","currentAggregatedProofNumber()":"89909c4d","getAggregatedProof(uint64)":"b5825bdd","initialize(address,address,address)":"c0c53b8b","markCurrentAggregatedProofAsMissed()":"ae1517df","owner()":"8da5cb5b","proxiableUUID()":"52d1902d","renounceOwnership()":"715018a6","sp1VerifierAddress()":"294e3ccb","transferOwnership(address)":"f2fde38b","upgradeTo(address)":"3659cfe6","upgradeToAndCall(address,bytes)":"4f1ef286","verify(bytes32,bytes32,bytes,bytes)":"fc2b4271"},"id":73}