{"abi":[{"type":"constructor","inputs":[],"stateMutability":"nonpayable"},{"type":"function","name":"VERIFIER_MOCK_ADDRESS","inputs":[],"outputs":[{"name":"","type":"address","internalType":"address"}],"stateMutability":"view"},{"type":"function","name":"aggregatedProofs","inputs":[{"name":"","type":"bytes32","internalType":"bytes32"}],"outputs":[{"name":"","type":"bool","internalType":"bool"}],"stateMutability":"view"},{"type":"function","name":"alignedAggregatorAddress","inputs":[],"outputs":[{"name":"","type":"address","internalType":"address"}],"stateMutability":"view"},{"type":"function","name":"initialize","inputs":[{"name":"newOwner","type":"address","internalType":"address"},{"name":"_alignedAggregatorAddress","type":"address","internalType":"address"},{"name":"_sp1VerifierAddress","type":"address","internalType":"address"},{"name":"_risc0VerifierAddress","type":"address","internalType":"address"}],"outputs":[],"stateMutability":"nonpayable"},{"type":"function","name":"owner","inputs":[],"outputs":[{"name":"","type":"address","internalType":"address"}],"stateMutability":"view"},{"type":"function","name":"proxiableUUID","inputs":[],"outputs":[{"name":"","type":"bytes32","internalType":"bytes32"}],"stateMutability":"view"},{"type":"function","name":"renounceOwnership","inputs":[],"outputs":[],"stateMutability":"nonpayable"},{"type":"function","name":"risc0VerifierAddress","inputs":[],"outputs":[{"name":"","type":"address","internalType":"address"}],"stateMutability":"view"},{"type":"function","name":"setRisc0VerifierAddress","inputs":[{"name":"_risc0VerifierAddress","type":"address","internalType":"address"}],"outputs":[],"stateMutability":"nonpayable"},{"type":"function","name":"sp1VerifierAddress","inputs":[],"outputs":[{"name":"","type":"address","internalType":"address"}],"stateMutability":"view"},{"type":"function","name":"transferOwnership","inputs":[{"name":"newOwner","type":"address","internalType":"address"}],"outputs":[],"stateMutability":"nonpayable"},{"type":"function","name":"upgradeTo","inputs":[{"name":"newImplementation","type":"address","internalType":"address"}],"outputs":[],"stateMutability":"nonpayable"},{"type":"function","name":"upgradeToAndCall","inputs":[{"name":"newImplementation","type":"address","internalType":"address"},{"name":"data","type":"bytes","internalType":"bytes"}],"outputs":[],"stateMutability":"payable"},{"type":"function","name":"verifyProofInclusion","inputs":[{"name":"merklePath","type":"bytes32[]","internalType":"bytes32[]"},{"name":"programId","type":"bytes32","internalType":"bytes32"},{"name":"publicInputs","type":"bytes","internalType":"bytes"}],"outputs":[{"name":"","type":"bool","internalType":"bool"}],"stateMutability":"view"},{"type":"function","name":"verifyRisc0","inputs":[{"name":"blobVersionedHash","type":"bytes32","internalType":"bytes32"},{"name":"risc0ReceiptSeal","type":"bytes","internalType":"bytes"},{"name":"risc0ImageId","type":"bytes32","internalType":"bytes32"},{"name":"risc0JournalBytes","type":"bytes","internalType":"bytes"}],"outputs":[],"stateMutability":"nonpayable"},{"type":"function","name":"verifySP1","inputs":[{"name":"blobVersionedHash","type":"bytes32","internalType":"bytes32"},{"name":"sp1ProgramVKey","type":"bytes32","internalType":"bytes32"},{"name":"sp1PublicValues","type":"bytes","internalType":"bytes"},{"name":"sp1ProofBytes","type":"bytes","internalType":"bytes"}],"outputs":[],"stateMutability":"nonpayable"},{"type":"event","name":"AdminChanged","inputs":[{"name":"previousAdmin","type":"address","indexed":false,"internalType":"address"},{"name":"newAdmin","type":"address","indexed":false,"internalType":"address"}],"anonymous":false},{"type":"event","name":"AggregatedProofVerified","inputs":[{"name":"merkleRoot","type":"bytes32","indexed":true,"internalType":"bytes32"},{"name":"blobVersionedHash","type":"bytes32","indexed":false,"internalType":"bytes32"}],"anonymous":false},{"type":"event","name":"BeaconUpgraded","inputs":[{"name":"beacon","type":"address","indexed":true,"internalType":"address"}],"anonymous":false},{"type":"event","name":"Initialized","inputs":[{"name":"version","type":"uint8","indexed":false,"internalType":"uint8"}],"anonymous":false},{"type":"event","name":"OwnershipTransferred","inputs":[{"name":"previousOwner","type":"address","indexed":true,"internalType":"address"},{"name":"newOwner","type":"address","indexed":true,"internalType":"address"}],"anonymous":false},{"type":"event","name":"Upgraded","inputs":[{"name":"implementation","type":"address","indexed":true,"internalType":"address"}],"anonymous":false},{"type":"error","name":"OnlyAlignedAggregator","inputs":[{"name":"sender","type":"address","internalType":"address"}]}],"bytecode":{"object":"0x60a080604052346100dc57306080526000549060ff8260081c1661008a575060ff8082161061004f575b6040516113f790816100e28239608051818181610562015281816106890152610b460152f35b60ff90811916176000557f7f26b83ff96e1f2b6a682f133852f6798a09c465da95921460cefb3847402498602060405160ff8152a138610029565b62461bcd60e51b815260206004820152602760248201527f496e697469616c697a61626c653a20636f6e747261637420697320696e697469604482015266616c697a696e6760c81b6064820152608490fd5b600080fdfe608080604052600436101561001357600080fd5b600090813560e01c908163015f866814610ea85750806327d3bc9a14610e79578063294e3ccb14610e505780633659cfe614610b2757806339c94cbf146109ab5780634c46688c146109825780634f1ef2861461061357806352d1902d1461054f5780635bea7ad614610446578063616af4f71461041d578063715018a6146103c057806383501b21146103a45780638da5cb5b1461037b578063a52f681b1461033b578063f2fde38b146102aa5763f8c8765e146100d157600080fd5b346102a75760803660031901126102a7576100ea611043565b6024356001600160a01b038116908190036102a5576044356001600160a01b038116908190036102a1576064356001600160a01b038116929083900361029d57845460ff8160081c161594858096610290575b8015610279575b1561021d5760ff1982166001178755610195918661020c575b5061017760ff885460081c1661017281611231565b611231565b610180336111e8565b61019060ff885460081c16611231565b6111e8565b6001600160601b0360a01b60cb54161760cb556001600160601b0360a01b60ca54161760ca556001600160601b0360a01b60cc54161760cc556101d55780f35b61ff001981541681557f7f26b83ff96e1f2b6a682f133852f6798a09c465da95921460cefb3847402498602060405160018152a180f35b61ffff19166101011787553861015d565b60405162461bcd60e51b815260206004820152602e60248201527f496e697469616c697a61626c653a20636f6e747261637420697320616c72656160448201526d191e481a5b9a5d1a585b1a5e995960921b6064820152608490fd5b50303b1580156101445750600160ff831614610144565b50600160ff83161061013d565b8480fd5b8380fd5b825b80fd5b50346102a75760203660031901126102a7576102c4611043565b6102cc611190565b6001600160a01b038116156102e7576102e4906111e8565b80f35b60405162461bcd60e51b815260206004820152602660248201527f4f776e61626c653a206e6577206f776e657220697320746865207a65726f206160448201526564647265737360d01b6064820152608490fd5b50346102a75760203660031901126102a757610355611043565b61035d611190565b60018060a01b03166001600160601b0360a01b60cc54161760cc5580f35b50346102a757806003193601126102a7576033546040516001600160a01b039091168152602090f35b50346102a757806003193601126102a757602060405160ff8152f35b50346102a757806003193601126102a7576103d9611190565b603380546001600160a01b0319811690915581906001600160a01b03167f8be0079c531659141344cd1fd0a4f28419497f9722a3daafe3b4186f6b6457e08280a380f35b50346102a757806003193601126102a75760cc546040516001600160a01b039091168152602090f35b50346102a75760603660031901126102a75760043567ffffffffffffffff811161054b573660238201121561054b5780600401359067ffffffffffffffff82116102a5573660248360051b830101116102a55760443567ffffffffffffffff81116102a1576104b9903690600401611015565b6104e7604080518381946020830196602435885284840137810188838201520301601f198101835282611059565b5190209083915b838310156105305760248360051b830101359081811060001461051f5785526020526001604085205b9201916104ee565b908552602052600160408520610517565b60ff604086602093815260c984522054166040519015158152f35b5080fd5b50346102a757806003193601126102a7577f00000000000000000000000000000000000000000000000000000000000000006001600160a01b031630036105a85760206040516000805160206113a28339815191528152f35b60405162461bcd60e51b815260206004820152603860248201527f555550535570677261646561626c653a206d757374206e6f742062652063616c60448201527f6c6564207468726f7567682064656c656761746563616c6c00000000000000006064820152608490fd5b5060403660031901126102a757610628611043565b60243567ffffffffffffffff81116102a557366023820112156102a5578060040135908361065583611091565b916106636040519384611059565b838352602083019336602482840101116102a557806024602093018637830101526106dc7f00000000000000000000000000000000000000000000000000000000000000006001600160a01b03166106bd308214156110ce565b6000805160206113a2833981519152546001600160a01b03161461112f565b6106e4611190565b7f4910fdfa16fed3260ed0e7147f7cc6da11a60208b5b9406d12a635614ffd91435460ff16156107195750506102e490611291565b6040516352d1902d60e01b81526001600160a01b03841690602081600481855afa86918161094a575b506107a35760405162461bcd60e51b815260206004820152602e60248201527f45524331393637557067726164653a206e657720696d706c656d656e7461746960448201526d6f6e206973206e6f74205555505360901b6064820152608490fd5b6000805160206113a2833981519152036108f3576107c084611291565b604051907fbc7cd75a20ee27fd9adebab32041f755214dbc6bffa90cc0225b39da2e5c2d3b8680a28151158015906108eb575b6107ff575b5050505080f35b833b1561089a5750610889928492839251915af43d15610893573d61082381611091565b906108316040519283611059565b81523d84602083013e5b6040519161084a606084611059565b602783527f416464726573733a206c6f772d6c6576656c2064656c65676174652063616c6c6020840152660819985a5b195960ca1b604084015261132a565b50388080806107f8565b606061083b565b62461bcd60e51b815260206004820152602660248201527f416464726573733a2064656c65676174652063616c6c20746f206e6f6e2d636f6044820152651b9d1c9858dd60d21b6064820152608490fd5b5060016107f3565b60405162461bcd60e51b815260206004820152602960248201527f45524331393637557067726164653a20756e737570706f727465642070726f786044820152681a58589b195555525160ba1b6064820152608490fd5b9091506020813d60201161097a575b8161096660209383611059565b8101031261097657519038610742565b8680fd5b3d9150610959565b50346102a757806003193601126102a75760cb546040516001600160a01b039091168152602090f35b50346102a75760803660031901126102a75760443567ffffffffffffffff811161054b576109dd903690600401611015565b60643567ffffffffffffffff81116102a1576109fd903690600401611015565b60cb54919290916001600160a01b03163303610b14576020848281010312610b0f5760ca548435948694916001600160a01b03169060fe198201610a84575b858780825260c960205260408220600160ff198254161790557ffe3e9e971000ab9c80c7e06aba2933aae5419d0e44693e3046913e9e58053f6260206040516004358152a280f35b813b15610b0b578593610ad3610ac1946040519788968795869563020a49e360e51b875260243560048801526060602488015260648701916110ad565b848103600319016044860152916110ad565b03915afa8015610b0057610aeb575b80808080610a3c565b81610af591611059565b61054b578138610ae2565b6040513d84823e3d90fd5b8580fd5b600080fd5b63921f325560e01b855233600452602485fd5b50346102a75760203660031901126102a757610b41611043565b610b7a7f00000000000000000000000000000000000000000000000000000000000000006001600160a01b03166106bd308214156110ce565b610b82611190565b6020604051610b918282611059565b83815281810190601f1983013683377f4910fdfa16fed3260ed0e7147f7cc6da11a60208b5b9406d12a635614ffd91435460ff1615610bd6575050506102e490611291565b6040516352d1902d60e01b8152939492936001600160a01b038616908581600481855afa859181610e21575b50610c635760405162461bcd60e51b815260048101879052602e60248201527f45524331393637557067726164653a206e657720696d706c656d656e7461746960448201526d6f6e206973206e6f74205555505360901b6064820152608490fd5b9394937fc9f76b5ec45e5cdef99837d7b6d2467235c1df8933c8ca56df5c35afa2c7d44401610dca57610c9586611291565b604051907fbc7cd75a20ee27fd9adebab32041f755214dbc6bffa90cc0225b39da2e5c2d3b8680a2815115801590610dc3575b610cd6575b50505050905080f35b853b15610d7257509280948192610d5f9551915af43d15610d6a573d90610cfc82611091565b91610d0a6040519384611059565b82523d858484013e5b7f416464726573733a206c6f772d6c6576656c2064656c65676174652063616c6c60405193610d43606086611059565b60278552840152660819985a5b195960ca1b604084015261132a565b508038808080610ccd565b606090610d13565b62461bcd60e51b815260048101849052602660248201527f416464726573733a2064656c65676174652063616c6c20746f206e6f6e2d636f6044820152651b9d1c9858dd60d21b6064820152608490fd5b5084610cc8565b60405162461bcd60e51b815260048101859052602960248201527f45524331393637557067726164653a20756e737570706f727465642070726f786044820152681a58589b195555525160ba1b6064820152608490fd5b9091508681813d8311610e49575b610e398183611059565b81010312610b0b57519038610c02565b503d610e2f565b50346102a757806003193601126102a75760ca546040516001600160a01b039091168152602090f35b50346102a75760203660031901126102a75760ff6040602092600435815260c984522054166040519015158152f35b82346102a75760803660031901126102a75760243567ffffffffffffffff811161054b57610eda903690600401611015565b909260643567ffffffffffffffff81116102a157610efc903690600401611015565b60cb5490959192906001600160a01b03163303610b1457602083878101031261029d5760cc548335966001600160a01b039091169360fe198501610f83575b868880825260c960205260408220600160ff198254161790557ffe3e9e971000ab9c80c7e06aba2933aae5419d0e44693e3046913e9e58053f6260206040516004358152a280f35b918082889360209583378101838152039060025afa1561100a57835192823b1561029d5791610fd39185936040519586948593849363ab750e7560e01b85526060600486015260648501916110ad565b906044356024840152604483015203915afa8015610b0057610ffa575b8080808080610f3b565b8161100491611059565b82610ff0565b6040513d85823e3d90fd5b9181601f84011215610b0f5782359167ffffffffffffffff8311610b0f5760208381860195010111610b0f57565b600435906001600160a01b0382168203610b0f57565b90601f8019910116810190811067ffffffffffffffff82111761107b57604052565b634e487b7160e01b600052604160045260246000fd5b67ffffffffffffffff811161107b57601f01601f191660200190565b908060209392818452848401376000828201840152601f01601f1916010190565b156110d557565b60405162461bcd60e51b815260206004820152602c60248201527f46756e6374696f6e206d7573742062652063616c6c6564207468726f7567682060448201526b19195b1959d85d1958d85b1b60a21b6064820152608490fd5b1561113657565b60405162461bcd60e51b815260206004820152602c60248201527f46756e6374696f6e206d7573742062652063616c6c6564207468726f7567682060448201526b6163746976652070726f787960a01b6064820152608490fd5b6033546001600160a01b031633036111a457565b606460405162461bcd60e51b815260206004820152602060248201527f4f776e61626c653a2063616c6c6572206973206e6f7420746865206f776e65726044820152fd5b603380546001600160a01b039283166001600160a01b0319821681179092559091167f8be0079c531659141344cd1fd0a4f28419497f9722a3daafe3b4186f6b6457e0600080a3565b1561123857565b60405162461bcd60e51b815260206004820152602b60248201527f496e697469616c697a61626c653a20636f6e7472616374206973206e6f74206960448201526a6e697469616c697a696e6760a81b6064820152608490fd5b803b156112cf5760018060a01b03166001600160601b0360a01b6000805160206113a28339815191525416176000805160206113a283398151915255565b60405162461bcd60e51b815260206004820152602d60248201527f455243313936373a206e657720696d706c656d656e746174696f6e206973206e60448201526c1bdd08184818dbdb9d1c9858dd609a1b6064820152608490fd5b90919015611336575090565b8151156113465750805190602001fd5b6040519062461bcd60e51b8252602060048301528181519182602483015260005b8381106113895750508160006044809484010152601f80199101168101030190fd5b6020828201810151604487840101528593500161136756fe360894a13ba1a3210667c828492db98dca3e2076cc3735a920a3ca505d382bbca2646970667358221220baa022b64bc77809dd98bd582b0c6fcff84f65ba27a4f4a7730fe5ee48b7cb4364736f6c634300081c0033","linkReferences":{}},"methodIdentifiers":{"VERIFIER_MOCK_ADDRESS()":"83501b21","aggregatedProofs(bytes32)":"27d3bc9a","alignedAggregatorAddress()":"4c46688c","initialize(address,address,address,address)":"f8c8765e","owner()":"8da5cb5b","proxiableUUID()":"52d1902d","renounceOwnership()":"715018a6","risc0VerifierAddress()":"616af4f7","setRisc0VerifierAddress(address)":"a52f681b","sp1VerifierAddress()":"294e3ccb","transferOwnership(address)":"f2fde38b","upgradeTo(address)":"3659cfe6","upgradeToAndCall(address,bytes)":"4f1ef286","verifyProofInclusion(bytes32[],bytes32,bytes)":"5bea7ad6","verifyRisc0(bytes32,bytes,bytes32,bytes)":"015f8668","verifySP1(bytes32,bytes32,bytes,bytes)":"39c94cbf"},"id":76}